:100000000C9491020C94AE020C94AE020C94AE02CD
:100010000C94AE020C94AE020C94AE020C94AE02A0
:100020000C94AE020C94AE020C942C1A0C94681929
:100030000C94B4110C94AE020C94AE020C94AE026B
:100040000C94AE020C94AE020C94AE020C94AE0270
:100050000C94AE020C9458110C94AE020C94AE02A7
:100060000C94AE020C94AE020C94AE020C94AE0250
:100070000C94AE020C94AE020C94AE020C94AE0240
:100080000C94AE020C94AE020C94AE020C94AE0230
:100090000C94AE020C94AE020C94AE020C94AE0220
:1000A0000C94AE020C94AE020C94AE02C005F605A0
:1000B000FB05000605060A060F06140619061E06AD
:1000C00023064B033B063E064106440647064A0606
:1000D0004D06630608070807460746078F079A0973
:1000E00041099A09AF079B08AD08AD08A40AA70A01
:1000F000AA0AAD0AB00AB30AB60A6D0E720E7C0ED9
:10010000700E750E7A0E780E7917A0174019A01789
:100110004019E8170B18401909191C19E822E822A0
:10012000FB22FB22F122FB22FB22FB22E822E82217
:10013000F622FB22FB22F62229002B003900D75C95
:10014000E00000001E003400040033003500010010
:100150001F0036001200140038002D002000370068
:1001600008000D00E2002C002100130018000E0012
:10017000E300010022001C000C001B000000BE0078
:100180000100010000002F000000BD00010001007F
:10019000000030000000AA0023000900070005004D
:1001A0000000A90024000A000B001000E700010075
:1001B0002500060017001A00500034002600150024
:1001C0001100190051002E0027000F0016001D001D
:1001D000520001002A0031002800D85C4F000000C6
:1001E00000010101010101010101020202020202FA
:1001F00002020203030303030303030404040404CD
:100200000404050505050506060606060707070793
:100210000708080808090909090A0A0A0B0B0B0C48
:100220000C0C0D0D0D0E0E0E0F0F0F1010111111E5
:100230001212131314141515161617171818191966
:100240001A1A1B1B1C1D1D1E1E1F202021222223CB
:100250002424252626272829292A2B2C2D2D2E2F0C
:1002600030313232333435363738393A3B3C3D3E23
:100270003F404142434445464748494A4C4D4E4F12
:1002800050515354555658595A5B5D5E5F616264D4
:10029000656668696B6C6D6F7072737577787A7B61
:1002A0007D7E8082838587888A8C8E8F91939596B8
:1002B000989A9C9EA0A2A3A5A7A9ABADAFB1B3B5D8
:1002C000B7BABCBEC0C2C4C6C9CBCDCFD1D4D6D8B4
:1002D000DBDDDFE2E4E7E9EBEEF0F3F5F8FAFDFF52
:1002E00005010980A10185031A81002A83001601F6
:1002F00000260300950175108100C0050C0901A1BD
:100300000185041A01002A9C02160100269C029510
:100310000175108100C005010906A10185050507C9
:1003200019E029E7150025019508750181020507E7
:10033000190029EF1500250195F0750181020508C6
:100340001901290595057501910295017503910122
:10035000C005010906A101050719E029E7150025D7
:10036000019508750181029501750881010507193C
:100370000029FF150026FF00950675088100050875
:1003800019012905950575019102950175039101E2
:10039000C009023B00020100A0FA090400000103A9
:1003A000010100092111010001224000070581031C
:1003B00008000A09040100010300000009211101DD
:1003C00000012271000705820320000A12011001BA
:1003D00000000008EDFE0713010001020301040301
:1003E0003000000016034500720067006F006400D3
:1003F0006F007800200045005A00000008035A00F2
:100400005300410000000403090400047F3F1F64FF
:100410003214643214783C1E1E140A05FFAA7F555C
:10042000402223252628292A2C2D2F3032333536F9
:10043000383A3B3D3E4042434547494A4C4E505175
:10044000535557595A5C5E6062646668696B6D6F9C
:1004500071737577797B7D7F81838587898A8C8E9F
:1004600090929496989A9C9E9FA1A3A5A7A8AAACA7
:10047000AEAFB1B3B4B6B8B9BBBCBEBFC1C2C3C5E1
:10048000C6C7C9CACBCCCDCED0D1D2D2D3D4D5D683
:10049000D7D7D8D9D9DADADBDBDBDCDCDCDCDCDDB6
:1004A000DDDDDDDCDCDCDCDCDBDBDBDADAD9D9D89A
:1004B000D7D7D6D5D4D3D2D2D1D0CECDCCCBCAC932
:1004C000C7C6C5C3C2C1BFBEBCBBB9B8B6B4B3B161
:1004D000AFAEACAAA8A7A5A3A19F9E9C9A989694FC
:1004E00092908E8C8A89878583817F7D7B797775D1
:1004F00073716F6D6B6968666462605E5C5A5957B0
:10050000555351504E4C4A4947454342403E3D3B6E
:100510003A3836353332302F2D2C2A2928262523F8
:10052000220011241FBECFEFDAE0DEBFCDBF12E004
:10053000A0E0B1E0E2E8FDE402C005900D92A03534
:10054000B107D9F723E0A0E5B2E001C01D92AA3CB3
:10055000B207E1F70E940E1C0C94BF260C94000019
:100560008F929F92AF92BF92CF92DF92EF92FF92C3
:100570000F931F93CF93DF93CDB7DEB728970FB6B6
:10058000F894DEBF0FBECDBFFC01F08011818381E6
:100590009481892B09F402C71F3F21F40FEFF01655
:1005A00009F4FCC66F0185E0DE01119601900D9201
:1005B0008A95E1F7F601228189819A81222349F007
:1005C0000E941113082F682F89819A810E948A1333
:1005D00003C00E945D13082F26E0129FF001112432
:1005E00034E5039FE00DF11D1124EF0DF11DEE0F19
:1005F000FF1FE85CFE4F05911491F60182810930DE
:10060000FDE51F0709F040C0882309F45AC0909106
:10061000310381E0890F8770987F853020F4892B22
:100620008093310302C0909331038091310387702E
:100630002FEF829FC00111249595879595958795F9
:100640009927909389008093880090938B008093E2
:100650008A0090938D0080938C00409131035091DB
:10066000320360913303709134038FE090E00E9475
:100670001B25609146037091470380914803909138
:1006800049030E940E0E1DC00B303DE51307C9F44F
:10069000882309F483C661E081E028960FB6F894B8
:1006A000DEBF0FBECDBFDF91CF911F910F91FF90A5
:1006B000EF90DF90CF90BF90AF909F908F900C9471
:1006C0005A0BF6018281882319F1033E8CE5180745
:1006D000C1F050F4013EECE51E0781F0023EFCE55E
:1006E0001F07B1F481E010C0043E2CE5120759F059
:1006F000053E3CE5130761F484E006C010922D032B
:1007000005C082E001C083E080932D030E94690C44
:1007100017FF71C0F6018281882309F46CC08091B3
:10072000EB02809350021092EB0280912D038130F6
:1007300071F048F08230C1F08430E1F486EE0E941E
:100740002C2488E115C082EE0E94A82313C083E008
:100750000E942D2388E10E94A82388E10E944C2357
:1007600083E00E94222306C082EE0E94A82387E530
:100770000E942C248FE39CE90197F1F700C0000050
:100780007801E894F7F85CE0A52EB12CC7010A2C9B
:1007900002C0969587950A94E2F7282F2F7041F0B2
:1007A000822F90E02A3010F44D9604C0069702C0C4
:1007B00087E290E00E942C2494E0A91AB108ECEFA3
:1007C000AE16EFEFBE0611F780912D03813039F0A0
:1007D00040F0823031F0843051F488E206C08CE27F
:1007E00004C082EE0E944C2302C00E942C248091FF
:1007F00050028093EB02033FFCE51F07B1F180F448
:10080000083D3CE51307C9F0093D8CE51807C9F11F
:10081000073D9CE51907C1F526E241EE61EE10C0E7
:10082000053FECE51E0749F120F1063F2CE51207D4
:1008300059F527E245EE66EE03C027E245EE65EE88
:10084000C60128960FB6F894DEBF0FBECDBFDF916C
:10085000CF911F910F91FF90EF90DF90CF90BF90BD
:10086000AF909F908F900C94552226E241EE60EE5F
:10087000E7CF27E245EE64EEE3CF26E241EE62EEFB
:10088000DFCF28E241E0DBCFF6019281992309F422
:100890004AC1109251020230FCE51F0708F42DC135
:1008A00006312CE5120738F098012A5F3C452730C5
:1008B000310508F022C10E944012909344038093B6
:1008C00043030F303CE5130709F4CFC008F042C0E2
:1008D00008309CE5190709F4A8C0F0F40430FCE5E1
:1008E0001F0709F490C068F402303CE5130709F4CF
:1008F00086C003301C4509F0DFC08091430382604D
:10090000D9C006309CE5190709F487C008F089C0F2
:10091000809143038860CEC00B30FCE51F0709F4CB
:1009200095C068F409303CE5130709F482C00A3029
:100930001C4509F0C1C080914303886080C00D3020
:100940009CE5190709F486C008F087C0809143032D
:100950008D7FB0C00A3FFCE51F0709F457C050F572
:1009600002313CE5130709F488C068F400319CE5C6
:10097000190709F47EC001311C4509F09DC0809122
:1009800043038F7B97C00431FCE51F0709F487C040
:1009900008F479C005311C4509F08EC080914303ED
:1009A00082FB222720F991E0922790FB82F990FBAD
:1009B00083F980C00D3F8CE5180709F452C058F444
:1009C0000B3FECE51E0729F10C3F1C4509F074C0F4
:1009D0008091440360C00F3F2CE5120709F458C012
:1009E00080F101151D4509F067C080914403982FDF
:1009F000909591708E7F892B90FB81F94DC08091ED
:100A00004303816057C08091430319C08091440320
:100A10001BC08091440382603FC08091430380618A
:100A200049C080914303806245C080914303806444
:100A300041C00E940D238091430380683BC08460C5
:100A400039C0809144038260816026C08091430355
:100A50008E7F30C08091430319C080914303877F0C
:100A600029C0809144038D7F17C0809143038F7EFE
:100A700021C0809143038F7D1DC00E940D23809172
:100A800043038F7717C080914303877F8B7F12C00A
:100A9000809144038D7F8E7F809344030DC00E941C
:100AA0000D238091430387FB222720F991E09227B1
:100AB00090FB87F9809343036091430310914403B3
:100AC00084E090E00E940925612F81E290E00E947D
:100AD000092528960FB6F894DEBF0FBECDBFDF9173
:100AE000CF911F910F91FF90EF90DF90CF90BF902B
:100AF000AF909F908F900C940D238091EB02063164
:100B0000FCE51F0789F58A7A91E009F490E090935B
:100B10005202911102C069E201C065E387E592E0EB
:100B20000E9408120DC006311C4509F028C18091B1
:100B30005202811131C469E287E592E00E94DD1121
:100B400028960FB6F894DEBF0FBECDBFDF91CF91D0
:100B50001F910F91FF90EF90DF90CF90BF90AF90DB
:100B60009F908F900C94CB128272F801E25CFC454E
:100B7000E431F10508F0AAC0EA5AFF4F0C9473253E
:100B80008091F60280FF2CC08E7F8093F6026091E8
:100B9000F6027091F7028091F8029091F9020E949A
:100BA0001C0B109262039FEFE0E7F2E09150E040EF
:100BB000F040E1F700C0000028960FB6F894DEBFC1
:100BC0000FBECDBFDF91CF911F910F91FF90EF909E
:100BD000DF90CF90BF90AF909F908F900C946C0F50
:100BE00081608093F60261E0869557CD45E95BE030
:100BF0006EE97BE02CC04EE95BE065E97BE027C055
:100C000044E55AE06DE57AE022C04DE55AE064E53E
:100C10007AE01DC04CE35AE068E47AE018C048E48A
:100C20005AE06CE37AE013C044E25AE060E37AE011
:100C30000EC040E35AE064E27AE009C048E35BE0BA
:100C400069E47BE004C049E45BE068E37BE028966C
:100C50000FB6F894DEBF0FBECDBFDF91CF911F91CD
:100C60000F91FF90EF90DF90CF90BF90AF909F904B
:100C70008F900C945C2165E082E011C068E086E012
:100C80000EC06EE089E00BC064E18FE008C067E150
:100C900085E105C061E088E100CD62E289E1289646
:100CA0000FB6F894DEBF0FBECDBFDF91CF911F917D
:100CB0000F91FF90EF90DF90CF90BF90AF909F90FB
:100CC0008F900C944A2161E083E2E7CC01152CE57A
:100CD0001207C1F00E3D1C4509F051C028960FB611
:100CE000F894DEBF0FBECDBFDF91CF911F910F9162
:100CF000FF90EF90DF90CF90BF90AF909F908F903C
:100D00000C9451120E940D238FEF94E3ECE081507C
:100D10009040E040E1F700C00000F89481E080934B
:100D2000E00080E28093D8001092C9008FE19EE439
:100D30000197F1F700C000001DBA109268001CBCBA
:100D400010BE1FBA10927A0010926E0010926F00BF
:100D500010927100109272001092C9001092BC00A3
:100D600014B817B81AB81DB810BA1092BC0015B84C
:100D700018B81BB81EB811BA0C94003F0FC3F60187
:100D800000811181992349F0C8010E941113F82EA6
:100D9000682FC8010E948A1304C0C8010E945D1315
:100DA000F82EB8018F2D0E946F0C182F382FF601E6
:100DB000258122952F70028101111092EA02809103
:100DC000E8028770A9F0002399F080E2810F883053
:100DD00078F082E02F8338879E830E94EB13809106
:100DE000E8028770EE24E3942F8138859E8181117B
:100DF000E12CA92EA2944FE0A422B12CFCE0AF1666
:100E0000B10408F097C2F501E659FF4F0C94732521
:100E1000892F807F9F70F92E882319F0F29480EF3C
:100E2000F8220023B9F0FF2009F415C280E2810FF7
:100E3000883010F0311106C09091EB02F92AF0923F
:100E4000EB0205C09091EA02F92AF092EA020E94B0
:100E5000CB1201C2812F38870E944C233885FF2096
:100E600009F468C2105EF094183010F0311106C019
:100E70009091EB02F922F092EB0205C09091EA0208
:100E8000F922F092EA020E94CB1254C2492F407F0D
:100E9000892F8F70403211F08295807F332319F0B3
:100EA0003130E9F025C0002381F03091EC0222239B
:100EB00051F0213041F4982F932B391709F43AC29D
:100EC0009093EC0237C2832B17C0222319F02130F4
:100ED00009F430C28E830E94C5128E811DC000238A
:100EE00021F0223008F026C207C0211123C214C00D
:100EF000002329F02111AFC10E9442231BC22223EB
:100F000059F0193309F0B9C10FEF27EE33E0015062
:100F100020403040E1F7AFC10E9437230BC2292F98
:100F200026952695237030E02115310521F02130DA
:100F3000310559F0FFC1002319F0812F937002C0D1
:100F400080E090E00E942821FEC1002319F0812F4B
:100F5000937002C080E090E00E941221F4C1892FBA
:100F6000837009F070C00111ECC1812F82958695C4
:100F70008770880F880F412F4F7050E060E070E05D
:100F80004A015B01082E04C0880C991CAA1CBB1CDA
:100F90000A94D2F714FF12C00FE010E020E030E016
:100FA00004C0000F111F221F331F8A95D2F7B90109
:100FB000A801409550956095709503C040E050E0C1
:100FC000BA01969596959370892F90E0823091059D
:100FD00029F183309105C9F00091ED021091EE02E4
:100FE0002091EF023091F002019759F048295929D8
:100FF0006A297B29CB01BA016023712382239323C1
:101000000AC0802A912AA22AB32ACB01BA016829F0
:1010100079298A299B290E94251493C14829592995
:101020006A297B298091ED029091EE02A091EF0256
:10103000B091F0028A019B01082719272A273B2734
:10104000C901B801E8CF002319F0892F817001C0D0
:101050008695882309F475C1812F829586958770BE
:10106000880F880F412F4F7050E060E070E04A0118
:101070005B01082E04C0880C991CAA1CBB1C0A9496
:10108000D2F714FF12C00FE010E020E030E004C0FF
:10109000000F111F221F331F8A95D2F7B901A80133
:1010A000409550956095709503C040E050E0BA01BE
:1010B000969596959370892F90E082309105E9F08E
:1010C0008330910579F100914603109147032091F7
:1010D000480330914903019759F0482959296A2951
:1010E0007B29CB01BA01602371238223932320C083
:1010F000802A912AA22AB32A15C0482959296A2987
:101100007B298091460390914703A0914803B091B9
:1011100049038A019B01082719272A273B27C90170
:10112000B80106C0CB01BA01682979298A299B290F
:101130000E94BA1306C19F70F92E002339F0892F3F
:101140000E940414812F0E944223FBC0812F0E9421
:1011500037238F2D0E94C613F4C0812F323FC9F16F
:1011600028F4303F49F0313F79F170C0333FC1F18D
:10117000343F09F44DC06AC0002311F12111DAC0D7
:10118000292F2F7181E090E0A0E0B0E0AC01BD011B
:1011900004C0440F551F661F771F2A95D2F7809110
:1011A000460390914703A0914803B09149038A01F7
:1011B0009B01082719272A273B27C901B80125C009
:1011C000223008F0B7C0DCCF002329F0892F8F71BF
:1011D0002EC00023D9F3892F8F710E94C613AAC095
:1011E000002381F0292F2F7181E090E0A0E0B0E092
:1011F000BC01CD0104C0660F771F881F991F2A9577
:10120000D2F703C060E070E0CB010E94BA1392C035
:10121000002381F0192F1F71812F0E94041428E0F0
:10122000129FC001112483608093E802812F0E94E5
:10123000041480C081E02F830E94EB132F812230A1
:1012400008F478C082E00E94EB1374C0002339F0E8
:10125000222309F4BBCF812F0E94A8236BC0222335
:1012600009F4B9CF893349F43FEF87EE93E0315069
:1012700080409040E1F700C00000812F0E944C2385
:1012800059C0323FB1F028F4303F49F0313FF9F016
:1012900028C0343FB9F058F0353F71F022C0002328
:1012A00009F451C09091780281E0892708C081E05B
:1012B00008270093780247C0011145C081E0809360
:1012C000780241C001113FC0109278023CC0002357
:1012D00029F080917702882329F329C0222311F372
:1012E00032C0809177022223C1F0882341F090918F
:1012F000780281E089278093780210927702812F0B
:10130000002319F00E94A8231EC00E944C2386E0EF
:10131000F60111928A95E9F716C08823A1F0011110
:1013200012C09091780281E0892780937802109210
:10133000770209C0F8E0AF1AB10804E0A016B104C2
:1013400010F40E943E21EE2049F18091E80280FDD8
:1013500025C0F60112828595859585950E94041415
:10136000C6010E94B0028091E80285958595859519
:1013700028960FB6F894DEBF0FBECDBFDF91CF9198
:101380001F910F91FF90EF90DF90CF90BF90AF90A3
:101390009F908F900C94C61365E3CECB28960FB622
:1013A000F894DEBF0FBECDBFDF91CF911F910F919B
:1013B000FF90EF90DF90CF90BF90AF909F908F9075
:1013C00008959091430392FF0DC0282F2871283073
:1013D00019F4877F846006C0282F2471243011F40B
:1013E0008B7F886093FF0DC0282F2871283119F456
:1013F000877E846106C0282F2471243111F48B7EEE
:1014000088612091440320FF0DC0382F3871383097
:1014100019F4877F816006C0382F3171313011F4A3
:101420008E7F886021FF0DC0282F2871283119F484
:10143000877E816106C0282F2171213111F48E7EB3
:10144000886194FD877E0895E6EFF2E043812CE009
:10145000421B08F440E021E0628181810C94B921B3
:10146000E6EFF2E043812CE0420F08F44FEF21E079
:10147000628181810C94B921E6EFF2E062812FEF65
:10148000621B08F460E021E0438181810C94B92162
:10149000E6EFF2E062812FEF620F08F46FEF21E0D8
:1014A000438181810C94B921E6EFF2E0818121E052
:1014B000438162818C500C94B921E6EFF2E0818186
:1014C00021E043816281845F0C94B921CF93E82F9E
:1014D000873080F58091070190910801892B09F0F0
:1014E00047C0CE2F64E670E080E40E9445249093CC
:1014F000080180930701892BD1F464E670E082E152
:101500000E949C249093080180930701892B79F411
:1015100081E090E001C0880FCA95EAF764E670E0C8
:1015200080950E949C249093080180930701CF919D
:101530000C94F12490E0FC013797E730F105C0F4FA
:10154000EA58FF4F0C947325209A289811C0219ACD
:1015500029980EC0229A2A980BC0239A2B9808C06B
:10156000529A5A9805C0539A5B9802C03E9A469880
:10157000CF910895CF93873008F03FC08091070145
:1015800090910801892B09F041C064E670E080E485
:101590000E9445249093080180930701892B11F044
:1015A000C0E027C064E670E083E10E949C24909331
:1015B000080180930701892B99F764E670E081E4C4
:1015C0000E9445249093080180930701892B41F7DD
:1015D00084E690E00E94CC2497FF05C09093080118
:1015E00080930701DDCFC82FC0951092080110929B
:1015F00007010E94F1248C2F0AC09FB18FB1807F18
:10160000869586959370892B809501C080E0CF9157
:1016100008958091F602282F269530E02115310596
:1016200019F48170826005C02532310524F0817083
:1016300088648093F6020895CF93DF9300D000D0A2
:10164000CDB7DEB7AB01BC0149835A836B837C8382
:101650000E94090B49815A816B817C8188E090E06E
:101660000F900F900F900F90DF91CF910C941B254E
:101670008091FA02882319F081508093FA026091D8
:10168000F6027091F7028091F8029091F9020C94A1
:101690001C0B8091FA02833018F48F5F8093FA025A
:1016A0006091F6027091F7028091F8029091F90230
:1016B0000C941C0B9091F60290FF36C09170811132
:1016C00002C0926006C0853210F0986402C0880F94
:1016D000982B9093F602662351F06091F602709178
:1016E000F7028091F8029091F9020E941C0B609120
:1016F000F602669570E04BE050E083E191E00E94D5
:10170000B226892B19F01092620302C00E94C222F5
:1017100081E080935E0320E04091F9026091F8023D
:101720008091F7020C94B92108958091F602869574
:10173000815009F484E261E00C945A0B8091F60226
:1017400086958F5F853208F081E061E00C945A0B3A
:10175000E6EFF2E083E0808311828FEF8283838360
:10176000148260817181828193810C941C0BBF92E1
:10177000CF92DF92EF92FF920F931F93CF93DF935D
:10178000E82EF62EE901E42FF0E0611106C0E052E8
:10179000FE4FE491BE2E8E2F73C0262F30E0E05214
:1017A000FE4FE491FE2FCE2ED12C46E0849FC00147
:1017B00011240FEF10E0B8010E944B254BEA4603BD
:1017C000D001479FB00D1124AE0DB11DAE0DB11D5E
:1017D0008A2F880FA80FC801821B930BC89EA001F7
:1017E000C99E500DD89E500D1124B52EAF9DC0013D
:1017F0001124892F99277801E81AF90AC701C89E90
:101800007001C99EF00CD89EF00C1124C8018A1BEF
:101810009109DC01A29FC001A39F900DB29F900D82
:101820001124892F9927081B190BC09E9001C19E76
:10183000300DD09E300D1124832F6230710591F050
:101840004CF461157105E1F061307105B9F48E2F2A
:10185000EF2D16C06430710569F044F066307105F3
:1018600079F00CC08E2FE52FB32E0AC0E52FBF2EC6
:101870008F2D06C0852FBE2EE32F02C0852FBF2CD3
:10188000E9838883BA821B82DF91CF911F910F91E8
:10189000FF90EF90DF90CF90BF900895CF93DF93AC
:1018A00000D000D0CDB7DEB79091F60290FF0AC00D
:1018B0009E012F5F3F4F0E94B70B4B8169818A8148
:1018C0000E9462210F900F900F900F90DF91CF91A7
:1018D000089560912D038CE090E00C940925CF933E
:1018E000DF9326E0729FF001112444E5849FE00D10
:1018F000F11D1124E60FF11DEE0FFF1FE85CFE4FF6
:10190000C591D491CE01C238D10569F1B0F4C1338B
:10191000D10509F475C048F4C932D10509F469C08C
:10192000CA32D10509F473C085C0C533D10509F4A5
:1019300059C0C933D105B9F07DC0C33ED10571F19D
:1019400038F4C03ED105B1F0C23ED10511F172C0EC
:10195000C63ED105B9F1C73ED105C9F1C43ED10596
:1019600009F068C024C04091430340FD5DC041FDC3
:101970005BC060C02091430320FD50C02091440310
:1019800020FF49C18091430384FD43C183EE90E071
:1019900042C12091430322FF3EC1F4CF8091430313
:1019A00082FD3FC08091440380FD3EC0EBCF20917B
:1019B000440321FF30C18091430384FD2AC187EE97
:1019C00090E029C12091430323FF25C1F4CF8091EA
:1019D000430383FD2CC08091440381FFECCF84EE50
:1019E00090E019C12091430325FF15C189E290E0E1
:1019F00012C12091430325FF0EC185E390E00BC186
:101A00002091430326FF07C18AE290E004C12091A0
:101A1000430326FF00C181E390E0FDC089E390E02D
:101A2000FAC082EE90E0F7C080EE90E0F4C086EE5F
:101A300090E0F1C0C11552E5D50708F06AC0C115A4
:101A400021E5D20728F09C2F8827816F906AE3C098
:101A5000C83ED10570F5C03ED10508F0DCC0C83ADB
:101A6000D105B8F4C53AD10550F08C2F855AE82F2E
:101A7000F0E0E05EFE4F808190E09064CCC0C13029
:101A8000D10509F4C8C008F4C4C0249708F4C1C043
:101A9000C2C0CF3BD10508F0BCC08C2F885AE82FBC
:101AA000F0E0EE0FFF1FED5DFE4F808191819464A9
:101AB000B2C0C11540E5D407E8F04C2F437081E077
:101AC00090E002C0880F991F4A95E2F79C68AE012A
:101AD000F4E056954795FA95E1F74370942B2C2F37
:101AE0002F702695269550E2259F90011124822B78
:101AF000932B91C0C11550E4D50720F0CE019F7003
:101B0000906A89C09E013A9521153F4108F483C02F
:101B100080C0C11556E5D507E8F5C11585E5D8079C
:101B200048F08C2F0E94E1098F7190E0982F882750
:101B3000906271C0C11594E5D90728F09C2F8827C1
:101B4000846F906A68C08C2F86958695AE0143702D
:101B50005527C115D34578F490E2899F900111244F
:101B600081E090E002C0880F991F4A95E2F7822B2E
:101B7000932B9C6850C090E2899F9001112481E0D2
:101B800090E002C0880F991F4A95E2F7822B932BB1
:101B90009A6841C0C1154AE5D40778F5C11559E5E1
:101BA000D50710F18C2F8F700E94E1099E0194E0FF
:101BB000369527959A95E1F72F7030E0322F22273E
:101BC0003069A901482B0EC090568115904208F546
:101BD0008D2F8F710E94E1099E01332730628F7132
:101BE000A901582BCA0117C0C11588E5D80788F08C
:101BF0009C2F8827806F906A0EC0C1159BE5D9077E
:101C000040F0CE01C1152CE5D207F0F69927906679
:101C100002C080E090E0DF91CF910895CF92DF92F3
:101C2000EF92FF920F931F936C01EE24FF24C114D7
:101C3000D104E104F10411F0E0E103C06B017C0187
:101C4000E0E033272F2D1E2D0D2D01151105210547
:101C5000310519F0E85F6801790197018601F4E028
:101C60003695279517950795FA95D1F70115110522
:101C70002105310519F0EC5F6801790197018601B2
:101C800052E036952795179507955A95D1F7011586
:101C900011052105310519F0EE5F68017901970101
:101CA00086013695279517950795012B022B032B57
:101CB00009F0EF5F56985E9825982D9826982E98F3
:101CC00027982F980E2F10E0F8013197E730F10593
:101CD000A8F4E358FF4F0C947325259A2D9A0EC053
:101CE000259A2D9A269A2E9A09C0259A2D9A04C0D3
:101CF000259A2D9A269A2E9A279A2F9A1F910F91FC
:101D0000FF90EF90DF90CF90089580E290E0909365
:101D10000801809307018091560281110EC00E9434
:101D20003F2481E0809356022FEF83ED90E3215012
:101D300080409040E1F700C0000064E670E080E47D
:101D40000E9445249093080180930701892B09F094
:101D50004EC064E670E080E00E949C2490930801ED
:101D600080930701892B09F042C064E670E080E0AF
:101D70000E949C249093080180930701892BB9F558
:101D800064E670E08FE30E949C24909308018093A6
:101D90000701892B61F50E94F12464E670E080E47C
:101DA0000E9445249093080180930701892BF9F440
:101DB00064E670E08CE00E949C249093080180937C
:101DC0000701892BA1F464E670E080E00E949C2466
:101DD0009093080180930701892B49F464E670E031
:101DE0008FE30E949C2490930801809307010E9436
:101DF000F124809107010895CF93DF9356985E9860
:101E000025982D9826982E9827982F98C8E8D0E0E6
:101E10008FEF90E099838883AAE8B0E011969C93B5
:101E20008E93ECE8F0E091838083259A2D9A2FEF32
:101E300080E792E0215080409040E1F700C0000030
:101E4000269A2E9A2FEF80E792E021508040904012
:101E5000E1F700C00000279A2F9A2FEF80E792E069
:101E6000215080409040E1F700C0000025982D9857
:101E70002FEF80E792E0215080409040E1F700C0D2
:101E8000000026982E982FEF80E792E021508040A6
:101E90009040E1F700C0000027982F98809131030F
:101EA00087702FEF829FC001112495958795959596
:101EB000879599279983888311969C938E93918314
:101EC000808356985E9825982D9826982E98279866
:101ED0002F98DF91CF910895EF92FF920F931F9368
:101EE000CF93DF938091F60280FF06C0C6E7D3E070
:101EF000DE0140E050E00EC080E090E0FC01EA58D6
:101F0000FC4F118210821282138204968C33910549
:101F1000A9F7ECCFFA01EA58FC4F92812C9131815C
:101F2000822F921708F4892F381708F4832F8383A0
:101F3000381B3183281B2C93981B92834C5F5F4F77
:101F400014964C33510531F70E943F2464E670E04B
:101F500084E80E94452400E010E0C8018A589C4FA4
:101F60007C0164E670E0FC0180810E949C2464E6B0
:101F700070E0F70181810E949C2464E670E0F70123
:101F800082810E949C2464E670E0F70183810E94B4
:101F90009C240C5F1F4F0C331105F9F60E94F124AD
:101FA000579A8BB18F779BB190682FB7F894F3E075
:101FB000C23BDF0789F0399148E09BB9000000C0BF
:101FC00037FF8BB9330F000000C000C000C08BB9D1
:101FD00000C04A9591F7EBCF2FBF8FE391E00197B7
:101FE000F1F700C00000DF91CF911F910F91FF909A
:101FF000EF90089584B1807F84B985B1807F85B9E1
:102000008AB1837F8AB98BB1837F8BB93E9846981A
:10201000089580B38C7080BB81B3836F81BB0895BA
:102020009F92AF92BF92CF92DF92EF92FF920F9367
:102030001F93CF93DF938091070190910801892B23
:1020400091F0809155028F5F8093550281110BC0F2
:102050000E94850E90E09093080180930701892BE0
:1020600011F40E94FC0E05E313E02CE3E22E23E0C2
:10207000F22E6801C0E0912C97E0A92EAC0E8C2FB7
:102080000E94660A8A2D0E94660A8C2F0E94BA0A54
:10209000F6019081981721F08083BB24B39401C08E
:1020A000B12C8A2D0E94BA0AF7019081981719F075
:1020B000808381E001C080E0B82A9B280E94FA0F4B
:1020C000CF5FFFEFCF1ADF0A8FEFE81AF80AC730A9
:1020D00099F60E94A8116AEF70E00E944B259C01BE
:1020E000682F809154028823E9F110925402E09104
:1020F0002B03F0912C03DF011E9690E07BEF8AEF1B
:10210000E82EF12C80818B3FA9F0482F50E0681712
:1021100028F0E901C41BD50BAE0106C06701C41A43
:10212000D50AA601420F531F4E31510514F070839A
:1021300001C091E03196EA17FB0721F79093540212
:10214000911002C0911110C010925302A0912B0364
:10215000B0912C0390915402EDE4F3E080E03EE076
:102160003E0F07C09110F0CF809153028111ECCF48
:1021700016C0E80129918E014081421741F04C912F
:102180004B3F21F46C93208391E001C081E01196D4
:1021900031963E13EECF9093540280935302892DD3
:1021A000DF91CF911F910F91FF90EF90DF90CF9033
:1021B000BF90AF909F90089508958091FE0208957A
:1021C000CF93DF93209121032430E1F52091060184
:1021D000222339F02091430327FF03C060E222E06D
:1021E00002C068E021E02093E9002FEF3091E80081
:1021F000215035FD06C035ED3A95F1F7000021116B
:10220000F5CF2091E80025FF1DC0EC01809106016B
:10221000811105C040E050E068E070E003C070E06C
:1022200040E050E0CE010E945E168091E8008E777B
:102230008093E80080E2FE01AFEFB2E001900D92E2
:102240008A95E1F7DF91CF910895CF93DF9300D086
:102250001F92CDB7DEB790912103943019F5898391
:102260007B836A8382E08093E9008FEF9091E8009E
:10227000815095FD06C095ED9A95F1F7000081110A
:10228000F5CF8091E80085FF0DC040E050E063E0AD
:1022900070E0CE0101960E945E168091E8008E7774
:1022A0008093E8000F900F900F90DF91CF910895E9
:1022B00078941F920F920FB60F9211248F939F93D1
:1022C000AF93BF938091F1029091F202A091F3023B
:1022D000B091F4020196A11DB11D8093F10290937B
:1022E000F202A093F302B093F402BF91AF919F91D9
:1022F0008F910F900FBE0F901F901895CF92DF9285
:10230000EF92FF920F931F932FB7F8944091F10231
:102310005091F2026091F3027091F4022FBF6A01B2
:102320007B01EE24FF248C0120E030E0C016D106B2
:10233000E206F30610F4415051099A01281B390BAB
:10234000C9011F910F91FF90EF90DF90CF900895FA
:102350002FB7F8948091F1029091F202A091F302CC
:10236000B091F4022FBF08951F920F920FB60F92F3
:1023700011248F939F93AF93BF9380914C0381114E
:1023800013C08091F1029091F202A091F302B091FA
:10239000F4024196A11DB11D8093F1029093F202C7
:1023A000A093F302B093F402BF91AF919F918F91EC
:1023B0000F900FBE0F901F901895209106012223B9
:1023C00021F02091430327FD04C0FC0132960896BA
:1023D00019C0262F2695269526952E31C0F4FC018E
:1023E000E20FF11D677081E090E001C0880F6A95EF
:1023F000EAF7809592818923828308953196E817C0
:10240000F90729F020812613F9CF1082F7CF08951C
:1024100020910601222321F02091430327FD05C0CE
:10242000FC0132962FEF30E019C0262F2695269515
:1024300026952E3120F5FC01E20FF11D677081E039
:1024400090E001C0880F6A95EAF79281892B828318
:1024500008952F3F39F03F5F363041F041914613E8
:10246000F8CF0DC04111F7CF232FF5CF2F3F39F013
:10247000FC01E20FF11D27FDFA956283089508958E
:10248000CF9384E090E00E94F524C82F81E290E091
:102490000E94F5242C2F30E0A901582BCA01CF91BE
:1024A00008956FEE7EEF80E090E00E94272560E0C7
:1024B00082E090E00E94092560E083E090E00E94C5
:1024C00009251092ED021092EE021092EF02109286
:1024D000F00260E084E090E00E94092560E081E283
:1024E00090E00E94092560E085E090E00E940925C7
:1024F00060E086E090E00E9409256FEF87E090E0C1
:102500000E94092540E050E0BA0188E090E00E9476
:102510001B2560E08DE090E00E94092540E050E03E
:10252000BA0188E190E00E941B2560E087E190E01D
:102530000E94092540E050E0BA018CE190E00E9441
:102540001B2560E080E290E00E9409251092310393
:1025500010923203109233031092340384E08061AE
:1025600080933103409131035091320360913303E2
:10257000709134038FE090E00E941B2540E050E012
:10258000BA0183E190E00C941B258091EC0281114B
:102590001092EC0208959091EA028091EB02892B4F
:1025A0002091E902982F922B909357028091EC0290
:1025B0008823D9F0892B80935702809106018823C4
:1025C00031F08091430387FF02C08EE101C086E0B5
:1025D000E9E5F2E090E0815028F021912223D9F33F
:1025E0009F5FF9CF91110E94C512E0914A03F091CB
:1025F0004B033097A9F080910601882359F0809110
:10260000430387FF07C0809157028093580285E0FB
:10261000809357020280F381E02D87E592E00994D0
:102620000895BF92CF92DF92EF92FF920F931F9384
:10263000CF93DF938C01C090ED02D090EE02E0903A
:10264000EF02F090F0028091460390914703A09131
:102650004803B0914903C82AD92AEA2AFB2ACFE1C4
:10266000D0E0D701C6010C2E04C0B695A79597956A
:1026700087950A94D2F780FF07C0BC2EB8018C2F33
:102680000E946F0C019719F4219758F7B12C8B2DEC
:10269000DF91CF911F910F91FF90EF90DF90CF903E
:1026A000BF900895CF93DF93EC010E941113BE01F8
:1026B0000E946F0CDF91CF910895292F220F920F66
:1026C000990F890F682F669566956695982F977074
:1026D00085E0689FB001112440E050E080E0FA01FD
:1026E000E60FF71FEF54FD4F208130E0092E02C0A6
:1026F000369527950A94E2F721703327042E01C0FE
:10270000220F0A94EAF7822B4F5F5F4F4530510545
:1027100031F70895292F220F920F990F890FA82FB3
:10272000A695A695A695877051E001C0550F8A958C
:10273000EAF785E0A89FD001112420E030E070E0A6
:10274000F901EA0FFB1FEF54FD4F4081CB01022E30
:1027500002C0969587950A94E2F781709927819532
:1027600084278523842780832F5F3F4F25303105C1
:1027700039F708950E940E0E609346037093470345
:1027800080934803909349030C94FF220F931F9367
:1027900041E050E060E070E004C0440F551F661F48
:1027A000771F8A95D2F740955095609570958091E6
:1027B000460390914703A0914803B09149038A01D1
:1027C0009B01082319232A233B23C901B8011F9128
:1027D0000F910C94BA132091E80280958223809384
:1027E000E802982F977079F430E0482F082E000CFB
:1027F000550B2417350739F08595859585950E94E9
:10280000C6131092E80208950F931F9341E050E021
:1028100060E070E004C0440F551F661F771F8A9563
:10282000D2F78091460390914703A0914803B0915D
:1028300049038A019B01082B192B2A2B3B2BC90129
:10284000B8011F910F910C94BA136093ED0270932D
:10285000EE028093EF029093F0020C94FF2280919D
:10286000B00290917F02891719F08F5F8770FBCFBC
:10287000089580917E0282958F7009F054C08091F6
:102880007B02882309F44FC08091B002A0917F029F
:102890006091790270917A0240917C0250917D02A0
:1028A000B6E08A1709F43FC090E041155105C1F127
:1028B0007F3F11F46F3FA1F1B89FF001B99FF00D78
:1028C0001124E058FD4F218172132AC02081621328
:1028D00027C02281211124C0238134812417350788
:1028E00010F421503109241B350B283C3105C0F46C
:1028F00020917E022F70206120937E0226E0289F87
:10290000F001299FF00D1124EB57FD4F80818F704E
:102910008061808389E792E00E94B0020C942F14BA
:1029200001968770BECF0895BF92CF92DF92EF924B
:10293000FF920F931F93CF93DF93CDB7DEB76197CD
:102940000FB6F894DEBF0FBECDBF8C0185E0F80155
:10295000DE011D9601900D928A95E1F7D8013C9118
:1029600011962C9111971296EC9012971396CD9088
:10297000DC9014975091790260917A0280917C02E8
:1029800090917D02009709F44FC16F3F19F45F3FAA
:1029900009F44AC1B0907B02BB2009F4ECC040911D
:1029A0007E02C816D90628F0F601E81BF90BCF0104
:1029B00004C0809590958C0D9D1DFF24F394883C58
:1029C000910548F0F12C407F09F09FC089E792E023
:1029D0000E94B00221C1842F807F09F044C062139D
:1029E00012C0531310C0E1100EC04F7040614093ED
:1029F0007E0289E792E00E94B00280917E02D801B7
:102A000015968C932EC0CD2819F12F3F11F43F3F1E
:102A1000F9F0FE2CE1101CC08091B00240917F02C1
:102A200056E0841709F458C090E0589FF001599F70
:102A3000F00D1124E058FD4F6181261306C060811E
:102A4000361303C06281611103C001968770E9CF1C
:102A5000FE2CEE2009F421C180917E0281608093DA
:102A60007E02F12C1AC162130AC0531308C0E11090
:102A700006C080917E02D80115968C93B0C03D8728
:102A80002E878D859E850E94D8228823D1F1EE2045
:102A9000C1F120917E02822F82958F7090E0029783
:102AA00074F08091790290917A0298878F831986C9
:102AB000DB86CA862C87CE0107960E94B00286E08C
:102AC000F801A9E7B2E001900D928A95E1F70E9422
:102AD0003914FF24F394E1C03D872E878D859E85B0
:102AE0000E945213292F22952F7030E02230310599
:102AF0000CF0C7C09F7009F0C1C0805E883008F438
:102B0000CCC0C8010E94B002E4CF621314C05313BA
:102B100012C0E11010C080917E02F8018583C801C7
:102B20000E94B00286E0E9E7F2E0DF011D928A959B
:102B3000E9F7FB2CB2C03D872E878D859E850E94CC
:102B4000D8228823F1F2EE20E1F220917E02822F3A
:102B500082958F7090E002970CF4B1CF809179024A
:102B600090917A029A8389831B82DD82CC822E83A4
:102B7000CE010196A2CFC816D90638F0C81AD90AD4
:102B8000B8ECCB16D10450F007C0809590958C0D11
:102B90009D1D883C910510F0F12C3EC0FE2CEE20CE
:102BA00009F4AFCF621327C0531325C020917E02D2
:102BB00020FD18C0822F82958F70482F50E041155C
:102BC000510581F0F80125834F30510541F08F5FA9
:102BD000982F9295907F822F8F70892B8583C801C3
:102BE0000E94B00286E0F801A9E7B2E001900D92E0
:102BF0008A95E1F752C03D872E878D859E850E947C
:102C0000D82281115CCF80917E02816080937E0208
:102C1000C8010E94B00241C0E9E7F2E086E0DF01AE
:102C20001D928A95E9F739C0EE2009F46ACF3D87F5
:102C30002E878D859E850E94D822F82E882309F440
:102C400060CF86E0F801A9E7B2E001900D928A9585
:102C5000E1F78091790290917A020E945213929545
:102C60009F70963041F48091780291E0892780939B
:102C70007802909377020E9439140FC081113DCFE2
:102C80000CC0243031050CF03CCF9F7009F435CFD7
:102C9000F8019581907F09F030CF8F2D61960FB6A6
:102CA000F894DEBF0FBECDBFDF91CF911F910F9182
:102CB000FF90EF90DF90CF90BF900895CF92DF927A
:102CC000FF920F931F93CF93DF931F92CDB7DEB781
:102CD000F82E8B0199830E94251B998181111CC0BC
:102CE000CF2CD92E01151105B1F08091E80085FD9A
:102CF0000AC08091E8008E778093E8000E94251B2F
:102D0000882381F309C0F60181916F018093F1005E
:102D100001501109E7CF80E00F90DF91CF911F9113
:102D20000F91FF90DF90CF9008951F93CF93DF9383
:102D3000CDB7DEB7AA970FB6F894DEBF0FBECDBFF2
:102D4000E3E2F3E088E08E0F9091F10091938E130F
:102D5000FBCF80912403833009F460C030F48130CC
:102D600071F0823009F49AC0B1C08A3009F486C08B
:102D70008B3009F46BC0893009F0A8C020C0809165
:102D80002303813A09F0A2C08091E800877F8093F5
:102D9000E8008091270390912803892B21F460E2B9
:102DA0008FEF92E003C060E080E090E070E00E946E
:102DB000AB1B8091E8008B778093E80087C08091FF
:102DC0002303813209F082C0809127039091280368
:102DD000029708F07BC08091E800877F8093E8002D
:102DE0008091E80082FD05C0809121038111F8CF18
:102DF0006DC02091F3008091F20090E0922B029739
:102E000029F48091F1008B7F813021F48091F100D1
:102E10008093FE028091E8008B7754C08091230359
:102E2000813A09F053C08091270390912803892BA0
:102E300009F04CC08091E800877F8093E800809182
:102E4000E80080FFFCCF8091060137C0809123030A
:102E50008132E1F58091270390912803892BB1F508
:102E60008091E800877F8093E8000E94571B809143
:102E70002503809306010E940D2328C0809123031F
:102E8000813221F58091E800877F8093E8000E94DD
:102E9000571B809126038093FD0218C08091230365
:102EA000813AA1F48091E800877F8093E8008091C7
:102EB000E80080FFFCCF8091FD028093F1008091BB
:102EC000E8008E778093E8000E94571B8091E8000D
:102ED00083FFD6C18091230390912403492F50E0B2
:102EE0004A30510508F0CCC1FA01EC57FF4F0C9461
:102EF0007325803821F0823809F0C2C108C0809162
:102F00001F0390912003992389F082600FC0809164
:102F100027038F70873008F0B3C18093E900809158
:102F2000EB0085FB882780F91092E9009091E8007A
:102F3000977F9093E8008093F1001092F10074C1A4
:102F4000282F2D7F09F09CC1882319F0823061F071
:102F500097C180912503813009F092C1933009F027
:102F600080E0809320032EC08091250381112AC028
:102F7000809127038F702FEF280F263008F080C133
:102F80008093E9002091EB0020FF1CC0933021F4D6
:102F90008091EB00806214C09091EB00906190935F
:102FA000EB0021E030E0A90102C0440F551F8A95D3
:102FB000E2F74093EA001092EA008091EB0088600B
:102FC0008093EB001092E9008091E800877F2FC189
:102FD000811156C1109125031F778091E3008078FD
:102FE000812B8093E3008091E800877F8093E80045
:102FF0000E94571B8091E80080FFFCCF8091E30086
:1030000080688093E300111102C082E001C083E078
:103010008093210335C18058823008F031C18091FE
:103020002503909126038C3D53E0950779F583E0C5
:103030008A838AE289834FB7F894DE01139620E0F1
:103040003EE051E2E32FF0E050935700E49120FF7F
:1030500003C0E295EF703F5FEF708E2F90E0EA3093
:1030600010F0C79601C0C0968D939D932F5F2431B9
:1030700049F74FBF8091E800877F8093E8006AE2BC
:1030800070E0CE0101960E94AB1BBDC040912703AA
:1030900050912803292F332723303105B9F06CF4E0
:1030A0002130310509F4FBC02230310509F0E8C0B8
:1030B0008BE390E0E1E9F3E054C02132310509F4FB
:1030C00033C02232310509F43CC0DAC0992781307F
:1030D0009105D1F05CF4892B09F0D2C0E6E0F4E070
:1030E000E4918E2F90E0E6E0F4E038C08230910564
:1030F00099F0039709F0C4C0EEEDF3E0E4918E2F50
:1031000090E0EEEDF3E02AC0ECEFF3E0E4918E2FD7
:1031100090E0ECEFF3E022C0E4EEF3E0E4918E2FD8
:1031200090E0E4EEF3E01AC04115510509F4BCC08B
:103130004130510509F0A4C089E090E0ECEBF3E0E8
:1031400010C04115510509F4B4C04130510509F0D2
:1031500097C081E790E0E0EEF2E003C0009709F449
:103160008FC02091E800277F2093E8002091290359
:1031700030912A032817390708F4C90140E0009765
:1031800089F120912103222309F43DC02530D9F192
:103190002091E80023FD37C02091E80022FD2FC0D8
:1031A0002091E80020FFEBCF4091F3002091F20046
:1031B00030E0342B009759F02830310540F4449129
:1031C0004093F100319601972F5F3F4FF3CF41E0DD
:1031D0002830310509F040E02091E8002E77209357
:1031E000E800CDCF4111CDCF0AC0809121038823C3
:1031F00051F0853041F08091E80083FD04C080915A
:10320000E80082FFF2CF8091E8008B778093E8009E
:1032100037C08038A9F58091E800877F8093E80067
:10322000809122038093F1008091E8008E77809353
:10323000E8000E94571B24C0811122C01091250371
:103240001230F0F48091E800877F8093E8001093BB
:1032500022030E94571B111106C08091E30087FDD5
:1032600002C081E001C084E08093210342E061EC70
:1032700081E00E94761B42E261EC82E00E94761BB4
:103280008091E80083FF1AC08091E800877F8093D7
:10329000E8008091EB0080628093EB000FC082E138
:1032A00090E0ECECF3E05DCF89E090E0E3EAF3E05E
:1032B00058CF80E490E0E1E5F3E053CFAA960FB653
:1032C000F894DEBF0FBECDBFDF91CF911F9108955F
:1032D0001F920F920FB60F9211242F933F934F938B
:1032E0005F936F937F938F939F93AF93BF93CF938E
:1032F000DF93EF93FF93C091E900CF708091EC00D2
:10330000D82FD17080FDD0E81092E9008091F000B4
:10331000877F8093F00078940E9495161092E900C0
:103320008091F00088608093F000CD2BCF70C09327
:10333000E900FF91EF91DF91CF91BF91AF919F9104
:103340008F917F916F915F914F913F912F910F904E
:103350000FBE0F901F901895E8EDF0E080818E7FF2
:1033600080831092E2001092DA001092E100A0EE49
:10337000B0E08C9181608C9380818F77808319BCC1
:10338000A7EDB0E08C918E7F8C9380818F7E8083BF
:103390001092F5020895CF92DF92EF92FF920F9371
:1033A0001F93CF93DF93C8EDD0E088818F7E888311
:1033B000E7EDF0E080818160808384E082BF81E07E
:1033C0008093F50288818E7F888302EE10E0F801F9
:1033D00010821092DA0081EEC82ED12CF6011082F4
:1033E00088818F77888388818068888388818F7DB2
:1033F000888319BC1092210310922203109220039B
:1034000010921F0390EEE92EF12CF70180818B7F43
:10341000808388818160888342E060E080E00E9450
:10342000761BF60180818E7F8083F8018081816028
:103430008083808188608083F70180818E7F808394
:10344000888180618883DF91CF911F910F91FF90D8
:10345000EF90DF90CF9008951F920F920FB60F92CA
:1034600011242F933F934F935F936F937F938F9389
:103470009F93AF93BF93EF93FF938091E10082FFFF
:1034800009C08091E20082FF05C08091E1008B7F3E
:103490008093E1008091DA0080FF2AC08091D800FB
:1034A00080FF26C08091DA008E7F8093DA008091C1
:1034B000D90080FF18C080E189BD82E189BD09B4CF
:1034C00000FEFDCF81E0809321038091F502811100
:1034D0000FC00E94AC190E94CB198091E200846059
:1034E0008093E20005C019BC109221031092F502EE
:1034F0008091E10080FF17C08091E20080FF13C03F
:103500008091E2008E7F8093E2008091E2008061F2
:103510008093E2008091D80080628093D80019BC2B
:1035200085E0809321038091E10084FF43C0809176
:10353000E20084FF3FC080E189BD82E189BD09B41A
:1035400000FEFDCF8091D8008F7D8093D8008091C0
:10355000E1008F7E8093E1008091E2008F7E809376
:10356000E2008091E20081608093E200809122037A
:10357000882311F084E007C08091E30087FD02C03A
:1035800081E001C083E0809321030E940D230E940B
:103590003E211092FC028091FB02882349F0809129
:1035A000F60281608093F60260E086950E945A0BD5
:1035B0000E94C2228091E10083FF27C08091E20037
:1035C00083FF23C08091E100877F8093E10082E048
:1035D00080932103109222038091E1008E7F8093DB
:1035E000E1008091E2008E7F8093E2008091E20012
:1035F00080618093E20042E060E080E00E94761B00
:103600008091F00088608093F000FF91EF91BF916E
:10361000AF919F918F917F916F915F914F913F916A
:103620002F910F900FBE0F901F901895209121039E
:10363000243021F4BC0184E00C9425110895BC01D0
:103640006058710983E00C9425112091E4003091B9
:10365000E50095E64091EC00842F817040FF22C088
:103660008091E80080FD1CC080912103882391F0A7
:10367000853091F08091EB0085FD10C04091E40011
:103680005091E5004217530729F39A01915011F721
:1036900084E0089582E0089583E0089581E008952C
:1036A00080E008954091E80042FFDECF08958091C8
:1036B000230387FF11C08091E80082FD05C080913F
:1036C00021038111F8CF11C08091E8008B770BC0E6
:1036D00080912103882349F08091E80080FFF8CF92
:1036E0008091E8008E778093E8000895982F9730B6
:1036F00058F59093E900981739F07091EC002091FB
:10370000ED005091F00003C0242F762F50E021FFF0
:1037100019C03091EB003E7F3093EB003091ED000B
:103720003D7F3093ED003091EB0031603093EB0042
:103730007093EC002093ED005093F0002091EE0088
:1037400027FF07C09F5FD3CF8F708093E90081E090
:10375000089580E008952091290330912A032617C7
:10376000370748F06115710539F42091E8002E778C
:103770002093E80001C0B90140E061157105A9F18D
:1037800020912103222309F443C0253009F442C0CB
:103790002091E80023FD40C02091E80022FD32C0C6
:1037A0002091E80020FFE9CF4091F3002091F20042
:1037B00030E0342BFC01CF016115710559F0283040
:1037C000310540F481918093F100615071092F5FC0
:1037D0003F4FF1CF41E02830310509F040E0209122
:1037E000E8002E772093E800C8CF4111C9CF0AC066
:1037F00080912103882361F0853061F08091E80099
:1038000083FD0AC08091E80082FFF2CF80E0089536
:1038100082E0089583E0089581E00895CF93DF93D7
:10382000CDB7DEB72C970FB6F894DEBF0FBECDBF75
:1038300084B7877F84BF0FB6F894A8958091600005
:10384000886180936000109260000FBE90E080E875
:103850000FB6F89480936100909361000FBE85B716
:10386000806885BF85B7806885BF0E94AC190E94BB
:10387000CB198091E20084608093E200789480917B
:1038800021038823A1F01091E9001F709091EC00B2
:10389000892F817090FD80E8182B1092E9008091AB
:1038A000E80083FD0E9495161F701093E90082E0E6
:1038B00084BD93E095BD9AEF97BD80936E000E9402
:1038C000850E90E090930801809307010E94FA0F03
:1038D0000E940910A5E3B3E0EDE4F3E02EE0D22E60
:1038E000DE0E11921D92DE12FCCF8EE090E00E945F
:1038F000852580932B0390932C03FC010E962BEFD0
:103900002193E817F907E1F780E090E00E94032592
:103910008F3E9E4F11F00E9451128CE090E00E9469
:10392000F52490E0A0E0B0E080932D0390932E0367
:10393000A0932F03B093300389EA8093800089E03D
:103940008093810024982C983F988AB18F7C8AB903
:103950006E98479A8BB180638BB9769A8FE090E02E
:103960000E94FD24609331037093320380933303EC
:103970009093340367708FEF689FB00111247595A1
:103980006795759567957727709389006093880090
:1039900070938B0060938A0070938D0060938C000D
:1039A0000E94FC0E80E090E00E9403258F3E9E4F17
:1039B00011F00E94511282E090E00E94F524809361
:1039C00064030E944012909344038093430383E076
:1039D00090E00E94F524682F70E080E090E00E9463
:1039E000251480914503811136C080E090E00E944B
:1039F00003258F3E9E4F21F00E9451120E94A80B7A
:103A000088E090E00E94FD246093F6027093F70234
:103A10008093F8029093F9026E7F71F40E94A80BD4
:103A200088E090E00E94FD246093F6027093F70214
:103A30008093F8029093F9020E94090B109262039E
:103A40008091F60280FF04C060E086950E945A0BC8
:103A500081E0809345036091460370914703809114
:103A60004803909149030E940E0E89E091E09093E3
:103A70004B0380934A038AE0E82E84E0F82E80917D
:103A80002103853009F065C080912103843009F459
:103A900041C010924C0320E488E190E00FB6F89406
:103AA000A895809360000FBE20936000109262037F
:103AB0008091FC02811117C081E08093FC0280910B
:103AC000F602982F91709093FB028E7F8093F602FE
:103AD0002FEF80E792E0215080409040E1F700C056
:103AE00000000E946C0F83B7817F846083BF83B71F
:103AF000816083BF7894889583B78E7F83BF0FB62C
:103B0000F894A8958091600088618093600010927D
:103B100060000FBE80912003882309F4B0CF0E947B
:103B2000850E90E090930801809307010E94FA0FA0
:103B30000E940910EDE4F3E01192DE12FDCF0E9425
:103B40001010EDE4F3E081918111E9C0DE12FBCFAA
:103B500096CF0E941010E5E6F3E0ADE4B3E000E09C
:103B600010E0302F2D919191922721F180E0CC240B
:103B7000C3944C2D4923D1F089833A832C2181E0D1
:103B800009F480E08B830E94A8118160782F9D83C7
:103B90008C8349815A816B818D810E943E20F8017E
:103BA000EB59FC4F8081C826C08219C08F5FCC0CB6
:103BB0008630F9F60F5F1F4F0E30110591F68FEF2B
:103BC0008E838F8318860E94A8118160782F9A8730
:103BD00089874E815F8168858A850E943E20809119
:103BE0006203882309F48FC080916103E091F6029B
:103BF000E695E81BE0935D03823049F4F0E0E85E6F
:103C0000FB4FE4910E2F10E02AE230E248C08630EC
:103C100049F4F0E0EB5EFB4FE4910E2F10E02AE157
:103C200030E23DC0893051F4E695F0E0EE5EFB4FA6
:103C3000E4910E2F10E026EA3EE131C08F3051F4BE
:103C4000E695F0E0E15FFB4FE4910E2F10E02BE9E9
:103C50003FE125C0853149F4F0E0E45FFB4FE4919A
:103C60000E2F10E02DE33FE11AC0883179F0833246
:103C700031F4F7010591149127E731E210C0843245
:103C800051F404EF11E020ED3EE109C008EE13E02D
:103C900028E03FE104C000ED17E025EA3EE1809115
:103CA0005E038823A9F010925E032B873C870E9455
:103CB000A811A80140955095840F951F90935C031F
:103CC00080935B031092600310925F033C852B8509
:103CD00080915B0390915C032B873C870E947E114F
:103CE0002B853C858017910770F0E0915B03F09184
:103CF0005C030E0F1F1F10935C0300935B038BE5A7
:103D000093E0F9010995109163030E943E21181771
:103D100009F4B5CE0E943E2180936303B0CE80E1CA
:103D200089BD82E189BD09B400FEFDCF8091D80034
:103D30008F7D8093D8008091E00082608093E000C6
:103D40008091E00081FDFCCF9ACE0895EF92FF9222
:103D50001F93CF93DF93EC0186E7E82E83E0F82EE4
:103D600010E08C8197014091F9026091F802810F77
:103D70000E94B70B1F5E84E0E80EF11C1F3F89F71D
:103D80000E946C0F8A819C8180FF02C09F5F01C0EE
:103D900091509C83DF91CF911F91FF90EF900895F8
:103DA000EF92FF920F931F93CF93DF937C01C6E7AF
:103DB000D3E000E010E0F7018481073011051CF426
:103DC000882339F002C0811104C09E014091F9029C
:103DD00002C09E0140E06091F8028091F7020E94CB
:103DE000B70B0F5F1F4F24960F30110521F70E946C
:103DF0006C0FF701248130E02F5F3F4F2170332794
:103E00002483DF91CF911F910F91FF90EF90089540
:103E1000EF92FF920F931F93CF93DF93EC012C81CE
:103E20003D812F5F3F4F217033273D832C8386E7F1
:103E3000E82E83E0F82E10E005E5812F86954C8171
:103E40005D81480F511D842F817097014091F902C7
:103E50006091F802809F802D11240E94B70B1F5F94
:103E600084E0E80EF11C1F3041F7DF91CF911F91E4
:103E70000F91FF90EF900C946C0F0F931F93CF93C3
:103E8000DF9380E090E0FC01EA58FC4F1182108241
:103E90001282138204968C339105A9F7C0E0D0E01A
:103EA0000FE010E0CE01B8010E945F25FC01809177
:103EB0007403082E000C990BEE0FFF1FEE0FFF1F6F
:103EC000C817D907A4F080911F01082E000C990B88
:103ED0008C179D0764F09F012A583C4F4091F902CE
:103EE0006091F8028091F7020E94B70B06C0EA5871
:103EF000FC4F11821082128213822196CF30D1059D
:103F000089F60E946C0F80911E0190917403980FA6
:103F10009093740320911F01280F20931F01121604
:103F200014F49E301CF0819580931E01DF91CF9197
:103F30001F910F9108959F92AF92BF92CF92DF92FF
:103F4000EF92FF920F931F93CF93DF93FC01828137
:103F500080FF03C0BB24BA9402C0BB24B39426E7FD
:103F6000E22E23E0F22E09E713E0C0E0D0E03FE0CC
:103F7000932EF80132971082F7011082F8013197E1
:103F80001082F801108294E0C92ED12CA12C8091CE
:103F900073038A0D80312CF0692D0E943D25892FF5
:103FA00002C087FD815F082E000C990BC817D90746
:103FB00091F48091F9028C9DA0018D9D500D1124EA
:103FC000559547955595479597016091F8028091D1
:103FD000F7020E94B70BAB0CF1E0CF1AD108B9F68B
:103FE000219684E0E80EF11C0C5F1F4FCF30D10505
:103FF00009F0BFCF0E946C0F8091730391E0B9125A
:1040000006C0811102C08EE007C0815005C090E05B
:104010000196BE010E945F2580937303DF91CF91CB
:104020001F910F91FF90EF90DF90CF90BF90AF90D6
:104030009F900895CF93DF93EC01E6EFF2E0438188
:1040400062818C810E944E0C8C818F5F8C83DF910A
:10405000CF910895CF93DF93EC01EC81F0E0EF5D19
:10406000FB4F4491E6EFF2E0628181810E944E0CA9
:104070008C818F5F8C83DF91CF910895EF92FF92B7
:104080000F931F93CF93DF93CDB7DEB767970FB62C
:10409000F894DEBF0FBECDBF4B8B5C8B6D8B7E8BE0
:1040A0008F8B0E891F8901151105C1F15F3F11F436
:1040B0004F3FA1F1E42EF12CA1E0B0E0042E01C0AD
:1040C000AA0F0A94EAF7852F90E0662319F0209151
:1040D000780206C09C0128543C4FF90120812A2314
:1040E0002223A9F046E0489F9001499F300D1124FA
:1040F000F701E20FF31FEE0FFF1FEA58FE4F40815A
:104100005181FC01E854FC4F9081A92B06C0FC01B1
:10411000E854FC4FA0958081A823A08386E0FE018F
:104120003D96DF01982F1D929A95E9F74D875E879E
:104130006F87198B088BDE01179601900D928A9577
:10414000E1F7CE0107960E949414811137C086E0F2
:10415000FE013796DE01119601900D928A95E1F7E6
:10416000FF81E8856A857B856115710539F1EF3F2F
:1041700011F4FF3F19F120917F0230E0C90101964F
:10418000877099274091B00250E08417950779F124
:10419000F983EA837D836C8396E0929FD001939F9D
:1041A000B00D1124A058BD4FFE01319601900D9223
:1041B0009A95E1F780937F020E942F1416E0809178
:1041C000B00290917F02891701F1189FC00111245C
:1041D00080589D4F0E9494148823B9F08091B002BA
:1041E00090E00196877099278093B002E8CF0E94F3
:1041F0000D2310927F021092B002E9E7F2E086E010
:10420000DF011D928A95E9F7D9CF67960FB6F8942A
:10421000DEBF0FBECDBFDF91CF911F910F91FF90F9
:10422000EF9008952091B6033091B703821793075A
:1042300071F09093B7038093B603E0914A03F09135
:104240004B03309721F00084F185E02D0994089507
:104250002091B4033091B5038217930771F09093C6
:10426000B5038093B403E0914A03F0914B03309778
:1042700021F00680F781E02D09940895E0914A032A
:10428000F0914B03309721F00190F081E02D0994DB
:1042900080E008959091F60290FF04C096959817DB
:1042A00040F003C0811105C090E0961710F40C9403
:1042B0009E0B61E00C945A0B882311F0FA0101C0A7
:1042C000FB0109949091F60290FF10C020E030E0CD
:1042D000F901EA58FC4F81836083428313822C5F8B
:1042E0003F4F2C333105A1F70C946C0F08950F93B9
:1042F0001F93CF93DF9300D000D0CDB7DEB78C01F2
:104300008091750381110AC09E012F5F3F4F4FEFCF
:104310006FEF0E94B70B8A8180937503F801848147
:10432000813051F028F0823061F4409175030AC069
:104330008091750340E007C06091750340E080E024
:1043400003C040E080E060E00E946221F801248127
:1043500030E0C901019663E070E00E945F2584832C
:104360000F900F900F900F90DF91CF911F910F91B1
:1043700008955F926F927F928F929F92AF92BF92B9
:10438000CF92DF92EF92FF920F931F93CF93DF9321
:1043900000D000D0CDB7DEB7182F762E042F622EB6
:1043A0009091F60290FF6DC0E92FE695AE2FB0E038
:1043B000AF5ABE4F8C91809361039E7F923061F41F
:1043C0009E012F5F3F4F812F0E94B70B4B81698168
:1043D0008A810E94622143C0823019F40091F9025F
:1043E0003EC0863019F41091F70239C08930D9F3F4
:1043F0008931A9F5E9518E2F8170582EE695F0E0AC
:10440000E45EFB4FA590B49086E7C82E83E0D82EDB
:10441000E12CF12CBB249FE0892E912CEA9CC00159
:10442000EB9C900DFA9C900D1124B4010E944B2539
:10443000812F511002C0860F01C0861B9601402FAC
:10444000672D0E94B70B8FEFE81AF80A84E0C80EB8
:10445000D11C8FE0E816F10409F70E946C0F10934D
:10446000F7027092F8020093F902662051F0609111
:10447000F6027091F7028091F8029091F9020E9481
:104480001C0B0F900F900F900F90DF91CF911F9109
:104490000F91FF90EF90DF90CF90BF90AF909F90E3
:1044A0008F907F906F905F9008950F931F93CF939D
:1044B000DF93C62FD42F022FFC0182818823C9F0FD
:1044C000609351020E94A8119093B3038093B203AA
:1044D00080E28C0F883008F050C0C77081E001C0C6
:1044E000880FCA95EAF7DF91CF911F910F910C9435
:1044F000422310915102161330C08091B203909163
:10450000B3030E947E11883C910538F5C0E2CD0FBF
:104510001D17B9F080E2810F883040F4177081E0F8
:1045200001C0880F1A95EAF70E943723C83048F473
:1045300081E09D2F977001C0880F9A95EAF70E943D
:104540004223802F0E942C24C830B8F4D77081E019
:1045500001C0880FDA95EAF70AC080E28C0F883034
:1045600060F4C77081E001C0880FCA95EAF7DF9157
:10457000CF911F910F910C943723DF91CF911F9111
:104580000F9108956091F602669570E04BE050E05F
:1045900083E191E00E94B226892B19F481E0809397
:1045A00062030E94A81190935C0380935B030895BB
:1045B0000E945213292F2F7092959F70E92FF0E0DF
:1045C0003297EE30F105B8F4E257FF4F0C947325A3
:1045D000803F99F018F4883E70F40FC0843F59F47E
:1045E0000CC0883E50F0813F31F407C0822F869581
:1045F00086958695089580E0089581E0089510924B
:10460000EA021092E9020E94CB1280E090E00E9440
:10461000282180E090E00C9412211092EB0280910E
:104620000601882331F08091430387FF02C08EE1A9
:1046300001C086E0E9E5F2E0DF011D928A95E9F725
:104640000C94FF22882341F080959091EA028923FF
:104650008093EA020C94CB120895882339F090914C
:10466000EA02892B8093EA020C94CB1208958823E6
:1046700041F080959091EB0289238093EB020C949A
:10468000CB120895882339F09091EB02892B809307
:10469000EB020C94CB120895882309F458C0682FBC
:1046A000823869F40E943E2181FF51C069E387E5A9
:1046B00092E00E9408120E94CB1269E30EC0833878
:1046C00091F40E943E2180FF42C063E587E592E0BD
:1046D0000E9408120E94CB1263E587E592E00E94D7
:1046E000DD110C94CB12843869F40E943E2182FFC4
:1046F0002EC067E487E592E00E9408120E94CB1268
:1047000067E4EBCF8CEF860F813A38F380E2860FB7
:10471000883070F4677081E090E001C0880F6A957E
:10472000EAF780959091EB0289238093EB02D9CF31
:104730008BE5860F833020F480E090E00C942821F4
:10474000685A673120F480E090E00C9412210895BB
:10475000882309F480C0682F8238B1F40E943E217A
:1047600081FD79C069E387E592E00E9408120E940A
:10477000CB122FEF81EE94E0215080409040E1F782
:1047800000C0000069E317C08338D9F40E943E21BD
:1047900080FD61C063E587E592E00E9408120E94F7
:1047A000CB122FEF81EE94E0215080409040E1F752
:1047B00000C0000063E587E592E00E94DD110C94E3
:1047C000CB128438B1F40E943E2182FD44C067E4DC
:1047D00087E592E00E9408120E94CB122FEF81EE33
:1047E00094E0215080409040E1F700C0000067E471
:1047F000E2CF8CEF860F813A28F487E592E00E94A1
:104800000812DDCF80E2860F883068F4677081E09F
:1048100090E001C0880F6A95EAF79091EB02892B2E
:104820008093EB02CCCFEBE5E60FE33038F4F0E019
:10483000E25EFD4F808190E00C942821685A673138
:1048400050F4E62FF0E0EE0FFF1FEF5DFD4F80818B
:1048500091810C9412210895CF93C82F0E94A82310
:10486000C93349F42FEF87EE93E021508040904008
:10487000E1F700C000008C2FCF910C944C231092D4
:10488000B9008CE08093B8000895EF92FF920F93E7
:104890001F93CF93DF93182FEB011092BC0084EA93
:1048A0008093BC000E94A8117C019091BC0097FDF0
:1048B0000EC0CF3F8FEFD807C1F30E94A8118E1909
:1048C0009F098C179D0788F38EEF9FEF2EC0909164
:1048D000B900987F983041F09091B900987F90315D
:1048E00019F08FEF9FEF21C01093BB0084E88093F5
:1048F000BC000E94A8118C019091BC0097FD0CC0D7
:10490000CF3F8FEFD807C1F30E94A811801B910BF6
:104910008C179D0788F3D8CF8091B900887F8831A4
:1049200011F08034F1F680E090E0DF91CF911F919B
:104930000F91FF90EF9008950F931F93CF93DF9304
:10494000EB018093BB0084E88093BC000E94A81117
:104950008C019091BC0097FD0EC0CF3F8FEFD80720
:10496000C1F30E94A811801B910B8C179D0788F33F
:104970008EEF9FEF0CC02091B900287F81E090E07E
:10498000283211F480E090E0919581959109DF91B2
:10499000CF911F910F9108950F931F93CF93DF93A2
:1049A000EC0184E88093BC000E94A8118C019091D6
:1049B000BC0097FD0EC0CF3F8FEFD807C1F30E9418
:1049C000A811801B910B8C179D0788F38EEF9FEF2A
:1049D00003C08091BB0090E0DF91CF911F910F91B8
:1049E000089584E98093BC000895F999FECF92BDA3
:1049F00081BDF89A992780B50895A6E1B0E044E01A
:104A000050E00C942F25A8E1B0E042E050E00C9477
:104A10002F25262FF999FECF92BD81BDF89A0197D7
:104A200000B4021639F01FBA20BD0FB6F894FA9AF6
:104A3000F99A0FBE08950396272F0E940A250E9417
:104A40000925252F0E940A25242F0C940A2501965A
:104A5000272F0E940A250C940925DC01CB01FC01BB
:104A6000F999FECF06C0F2BDE1BDF89A319600B4C7
:104A70000D9241505040B8F7089587FB082E062646
:104A800087FD819567FD61950E9479250EF49195CA
:104A900007FC81950895AA1BBB1B51E107C0AA1F03
:104AA000BB1FA617B70710F0A61BB70B881F991FCF
:104AB0005A95A9F780959095BC01CD01089597FB73
:104AC000072E16F4009407D077FD09D00E944B25DD
:104AD00007FC05D03EF4909581959F4F0895709501
:104AE00061957F4F0895EE0FFF1F0590F491E02D23
:104AF0000994991B79E004C0991F961708F0961B3A
:104B0000881F7A95C9F780950895CF93DF938230F7
:104B1000910510F482E090E0E091C803F091C903A0
:104B200020E030E0C0E0D0E0309711F140815181C9
:104B300048175907C0F04817590761F482819381DB
:104B4000209719F09B838A832BC09093C90380938D
:104B5000C80326C02115310519F04217530718F470
:104B60009A01BE01DF01EF010280F381E02DDCCF6D
:104B70002115310509F1281B390B2430310590F43A
:104B800012968D919C9113976115710521F0FB018F
:104B90009383828304C09093C9038093C803FD016B
:104BA000329644C0FD01E20FF31F8193919322508E
:104BB00031092D933C933AC02091C6033091C7032D
:104BC000232B41F420910201309103013093C7035C
:104BD0002093C60320910001309101012115310578
:104BE00041F42DB73EB74091040150910501241BBB
:104BF000350BE091C603F091C703E217F307A0F469
:104C00002E1B3F0B2817390778F0AC014E5F5F4F22
:104C10002417350748F04E0F5F1F5093C70340938A
:104C2000C6038193919302C0E0E0F0E0CF01DF91F1
:104C3000CF9108950F931F93CF93DF93009709F4BB
:104C40008CC0FC013297138212820091C80310912C
:104C5000C9030115110581F420813181820F931F51
:104C60002091C6033091C7032817390779F5F093CF
:104C7000C703E093C60371C0D80140E050E0AE170F
:104C8000BF0750F412962D913C911397AD01211559
:104C9000310509F1D901F3CF9D01DA013383228374
:104CA00060817181860F971F8217930769F4EC0169
:104CB00028813981260F371F2E5F3F4F3183208394
:104CC0008A819B8193838283452B29F4F093C903C6
:104CD000E093C80342C01396FC93EE931297ED0144
:104CE000499159919E01240F351FE217F30771F482
:104CF00080819181840F951F029611969C938E93CB
:104D00008281938113969C938E931297E0E0F0E05A
:104D1000D80112968D919C911397009719F0F80184
:104D20008C01F6CF8D919C9198012E5F3F4F820FA1
:104D3000931F2091C6033091C7032817390769F4E0
:104D4000309729F41092C9031092C80302C013824D
:104D500012821093C7030093C603DF91CF911F9176
:104D60000F910895FC014150504030F0019006161B
:104D7000D1F73197CF010895882799270895F8949E
:024D8000FFCF63
:104D82000000CA032000012000DD10E010DC101F2B
:104D92001B161B01191A1B1C1D1E1F20212201029A
:104DA200818283E200E900EA00B500B600B700CDD7
:104DB200008301CC008A0192019401210223022482
:104DC200022502260227022A02B300B4006F0070F5
:104DD2000000010202020206060609090909090980
:104DE2000F0F0F0F0F0F151515181919191919197A
:104DF200191919192324000D010D020D030D040DBB
:104E0200050D000C010C020C030C040C050C000B2C
:104E1200010B020B030B040B050B000A010A020A29
:104E2200030A040A050A000901090209030904091F
:104E3200050900080108020803080408050800071C
:104E42000107020703070407050700060106020619
:104E5200030604060506000501050205030504050F
:104E6200050500040104020403040404050400030C
:104E72000103020303030403050300020102020209
:104E820003020402050200010101020103010401FF
:104E920005010000010002000300040005008182F8
:104EA20083E200E900EA00B500B600B700CD008356
:104EB20001CC008A019201940121022302240225DD
:104EC20002260227022A02B300B4006F007000001B
:00000001FF
