:100000000C949F020C94BC020C94BC020C94BC0295
:100010000C94BC020C94BC020C94BC020C94BC0268
:100020000C94BC020C94BC020C944E160C94251536
:100030000C94EF250C94BC020C94BC020C94BC02F2
:100040000C94BC020C94BC020C94BC020C94BC0238
:100050000C94BC020C9469150C94BC020C94BC0268
:100060000C94BC020C94BC020C94BC020C94BC0218
:100070000C94BC020C94BC020C94BC020C94BC0208
:100080000C94BC020C94BC020C94BC020C94BC02F8
:100090000C94BC020C94BC020C94BC020C94BC02E8
:1000A0000C94BC020C94BC020C94BC020001010133
:1000B0000101010101010202020202020202020325
:1000C00003030303030303040404040404040505F5
:1000D00005050506060606060707070707080808B8
:1000E00008090909090A0A0A0B0B0B0C0C0C0D0D67
:1000F0000D0E0E0E0F0F0F101011111112121313FF
:100100001414151516161717181819191A1A1B1B77
:100110001C1D1D1E1E1F20202122222324242526D3
:1001200026272829292A2B2C2D2D2E2F303132320B
:10013000333435363738393A3B3C3D3E3F40414217
:10014000434445464748494A4C4D4E4F50515354FD
:10015000555658595A5B5D5E5F61626465666869B1
:100160006B6C6D6F7072737577787A7B7D7E808231
:10017000838587888A8C8E8F91939596989A9C9E7A
:10018000A0A2A3A5A7A9ABADAFB1B3B5B7BABCBE8A
:10019000C0C2C4C6C9CBCDCFD1D4D6D8DBDDDFE257
:1001A000E4E7E9EBEEF0F3F5F8FAFDFFFFAA7F557F
:1001B000402223252628292A2C2D2F30323335366C
:1001C000383A3B3D3E4042434547494A4C4E5051E8
:1001D000535557595A5C5E6062646668696B6D6F0F
:1001E00071737577797B7D7F81838587898A8C8E12
:1001F00090929496989A9C9E9FA1A3A5A7A8AAAC1A
:10020000AEAFB1B3B4B6B8B9BBBCBEBFC1C2C3C553
:10021000C6C7C9CACBCCCDCED0D1D2D2D3D4D5D6F5
:10022000D7D7D8D9D9DADADBDBDBDCDCDCDCDCDD28
:10023000DDDDDDDCDCDCDCDCDBDBDBDADAD9D9D80C
:10024000D7D7D6D5D4D3D2D2D1D0CECDCCCBCAC9A4
:10025000C7C6C5C3C2C1BFBEBCBBB9B8B6B4B3B1D3
:10026000AFAEACAAA8A7A5A3A19F9E9C9A9896946E
:1002700092908E8C8A89878583817F7D7B79777543
:1002800073716F6D6B6968666462605E5C5A595722
:10029000555351504E4C4A4947454342403E3D3BE1
:1002A0003A3836353332302F2D2C2A29282625236B
:1002B0002229002B003900D75CE00000001E00144A
:1002C0000004001D00010001001F001A0016001BA1
:1002D00000010035002000080007000600E2002CA5
:1002E000002100150009001900E300010022001799
:1002F000000A0005000000BE0023001C0000002FC3
:10030000000000BD0035002700000030000000AAFA
:100310000024001C000B0011000000A9002500189B
:10032000000D001000E700010026000C000E003652
:1003300000380034002D0012000F0037005000017B
:10034000002E00130033005200510001002A00313A
:10035000002800D85C4F00000001000100010001EE
:100360000001000000010001000100010001000186
:100370000001000100010001000100010001000175
:100380000001000100010001000100010001000165
:100390000001000100010001000100010000000156
:1003A0000001000100000001000000010001000147
:1003B0000000000100000001000100010001000137
:1003C0000000000100010001000100010001000126
:1003D00000240021001E003600010001002500223B
:1003E000001F0037005000010026002300200052AB
:1003F000005100010001000100010001004F000058
:100400000000047F3F1F643214643214783C1E1EC7
:10041000140A0505010980A10185031A81002A83B8
:1004200000160100260300950175108100C0050C1F
:100430000901A10185041A01002A9C021601002667
:100440009C02950175108100C005010906A1018576
:1004500005050719E029E7150025019508750181B3
:10046000020507190029EF1500250195F075018196
:100470000205081901290595057501910295017577
:10048000039101C005010906A101050719E029E74B
:1004900015002501950875018102950175088101F6
:1004A0000507190029FF150026FF0095067508812C
:1004B0000005081901290595057501910295017539
:1004C000039101C009023B00020100A0FA090400E7
:1004D0000001030101000921110100012240000770
:1004E00005810308000A0904010001030000000956
:1004F00021110100012271000705820320000A1268
:1005000001100100000008EDFE07130100010203C5
:100510000104033000000016034500720067006FFD
:100520000064006F007800200045005A00000008B9
:10053000035A005300410000000403090400112481
:100540001FBECFEFDAE0DEBFCDBF11E0A0E0B1E02B
:10055000E8E8F1E502C005900D92AE3EB107D9F78B
:1005600023E0AEEEB1E001C01D92A936B207E1F77B
:100570000E943E230C9497280C940000E8EDF0E0D4
:1005800080818E7F80831092E2001092DA001092B8
:10059000E100A0EEB0E08C9181608C9380818F7738
:1005A000808319BCA7EDB0E08C918E7F8C93808105
:1005B0008F7E808310922F0308952091E400309164
:1005C000E50095E6A9012091EC00822F817020FFC3
:1005D00006C08091E80080FF06C080E00895209169
:1005E000E80022FD1AC080915B03882389F08530E2
:1005F00089F08091EB0085FD0FC02091E4003091DF
:10060000E50042175307F9F29150E1F684E00895AE
:1006100082E0089583E0089581E00895EF92FF92CB
:100620000F931F93CF937C018B010E94DD02C82F93
:10063000811117C08091E80085FD0BC08091E80012
:100640008E778093E8000E94DD02882399F3C82FFB
:1006500008C0F70181917F018093F10001501109D9
:1006600049F78C2FCF911F910F91FF90EF90089534
:1006700080915D0387FF13C08091E80082FF06C070
:100680008091E8008B778093E80004C080915B0341
:100690008111F2CF089580915B038823D9F3809173
:1006A000E80080FFF8CF8091E8008E77ECCF982F9C
:1006B0009093E900242F762F50E0891731F0709144
:1006C000EC002091ED005091F00021FD07C09F5FEC
:1006D000973071F78093E90081E008953091EB0045
:1006E0003E7F3093EB003091ED003D7F3093ED0085
:1006F0003091EB0031603093EB007093EC0020936D
:10070000ED005093F0002091EE0027FDE0CF80E057
:100710000895CF92DF92EF92FF920F931F93CF93A2
:10072000DF93C8EDD0E088818F7E8883E7EDF0E02D
:1007300080818160808384E082BF81E080932F0389
:1007400088818E7F888302EE10E0F801108210927B
:10075000DA0081EEC82ED12CF601108288818F77C5
:10076000888388818068888388818F7D888319BC8D
:1007700010925B0310925C0310925A03109259037B
:1007800090EEE92EF12CF70180818B7F80838881A8
:100790008160888342E060E080E00E945703F601B8
:1007A00080818E7F8083F801808181608083808159
:1007B00088608083F70180818E7F8083888180615B
:1007C0008883DF91CF911F910F91FF90EF90DF9081
:1007D000CF900895FC018091630390916403861784
:1007E0009707A0F06115710529F49091E8009E77B4
:1007F0009093E80090E06115710551F4911108C0E3
:100800008091E80082FF34C080E00895BC01F2CFFF
:1008100080915B038823C1F18530C1F18091E800AC
:1008200083FD30C08091E80082FDEACF8091E8002E
:1008300080FFE1CF8091F3002091F200382F611505
:10084000710519F02830310558F091E02830310554
:1008500009F090E02091E8002E772093E800CBCFBC
:1008600081918093F100615071092F5F3F4FE7CF75
:1008700080915B03882341F0853041F08091E8004E
:1008800083FFBECF81E0089582E0089583E008955C
:1008900008950895809138030895CF92DF92EF92E2
:1008A000FF920F931F932FB7F8944091E20250915B
:1008B000E3026091E4027091E5022FBF6A017B01BF
:1008C000EE24FF248C0130E020E0C016D106E206C1
:1008D000F30650F0481B590BCA011F910F91FF906E
:1008E000EF90DF90CF90089541505109F3CF809160
:1008F000DD0281111092DD0208958091DC02909159
:10090000DB02892B9091DA02892B8093EE01909182
:10091000DD029923A1F0892B8093EE0180911F01C4
:10092000882341F18091FF0287FF24C08EE1E0EF30
:10093000F1E090E0815000F591110E947704E09180
:100940000603F09107033097E1F080911F0188239F
:1009500059F08091FF0287FF07C08091EE018093DC
:10096000EF0185E08093EE010280F381E02D8EEEB1
:1009700091E0099486E0DBCF21912223D9F29F5F99
:10098000D9CF089590911F019923D1F09091FF0242
:1009900097FF16C0E82FE695E695E695EE31E0F470
:1009A000F0E0E251FE4F282F277081E090E001C077
:1009B000880F2A95EAF7809592818923828308958A
:1009C000E0EFF1E09191891303C0DF0111971C92D0
:1009D00091E0E63FF907B1F7089590911F0199233F
:1009E000C1F09091FF0297FF14C0E82FE695E695BD
:1009F000E695EE31F8F4F0E0E251FE4F877021E029
:100A000030E001C0220F8A95EAF78281822B82832F
:100A10000895A0EFB1E0EFEF90E02D91821751F033
:100A2000EF3F19F4211101C0E92F9F5F9630A9F71C
:100A3000EF3F09F408950E2E000CFF0BE251FE4F1C
:100A4000E6CFE92FEE0FE90FEE0F8E0F982F97707C
:100A500086958695869525E0829FF0011124EE55B6
:100A6000FD4F50E040E080E0219130E0092E02C0CF
:100A7000369527950A94E2F721703327042E01C09A
:100A8000220F0A94EAF7822B4F5F5F4F45305105E2
:100A900059F70895E92FEE0FE90FEE0F8E0F982FFB
:100AA000977041E001C0440F9A95EAF786958695C4
:100AB000869595E0899FF0011124EE55FD4F30E0B9
:100AC00020E070E05191DF011197CB01022E02C0AE
:100AD000969587950A94E2F78170819585278423FE
:100AE00085278C932F5F3F4F2530310559F70895A7
:100AF0008091A10290917002981301C008958F5FB8
:100B00008770FACF882341F080959091DB0289238A
:100B10008093DB020C947D040895882339F0909132
:100B2000DB02982B9093DB020C947D0408958823BC
:100B300041F080959091DC0289238093DC020C9433
:100B40007D040895882339F09091DC02982B9093CE
:100B5000DC020C947D0408952091550230915602D8
:100B60002817390771F09093560280935502E0914F
:100B70000603F0910703309721F00084F185E02D02
:100B8000099408952091530230915402281739078F
:100B900071F09093540280935302E0910603F09118
:100BA0000703309721F00680F781E02D099408951E
:100BB0001092DB021092DA020E947D0490E080E045
:100BC0000E94C20590E080E00C94AC056093DE02C8
:100BD0007093DF028093E0029093E1020C94D805B9
:100BE000E0910603F0910703309721F00190F08126
:100BF000E02D099480E00895882309F452C08238DA
:100C000071F40E94F00581FF4CC089E30E94ED045D
:100C10000E947D0489E30E94C2040C947D04833801
:100C200059F40E94F00580FF3CC083E50E94ED046A
:100C30000E947D0483E5EFCF843859F40E94F005CB
:100C400082FF2FC087E40E94ED040E947D0487E4A8
:100C5000E2CF9CEF980F913AF0F290E2980F983023
:100C600088F4877021E030E0A90102C0440F551FCD
:100C70008A95E2F7CA0180959091DC0289238093DE
:100C8000DC02CBCF9BE5980F933020F490E080E01E
:100C90000C94C205885A873120F490E080E00C94CF
:100CA000AC0508958091300380FF02C086950895B9
:100CB00080E0089580913003982F9E7F29F4817001
:100CC00082608093300308958A34E8F381708864E9
:100CD000F8CFAF92BF92DF92EF92FF920F931F93E4
:100CE000CF93DF93082F162FE901E42FF0E0E455AE
:100CF000FF4F611110C0E4915E2F4E2F4983E883AE
:100D00005A83DF91CF911F910F91FF90EF90DF9069
:100D1000BF90AF900895E62EF12C4491D42EE42F8D
:100D2000F0E026E0829FC00111242FEF30E0B901EE
:100D30000E94DD26802F90E0880F991F55E5569F71
:100D4000D001579FB00D11248A1B9B0B982F990F30
:100D5000890F5901AE18BF08AE9ED001AF9EB00DED
:100D6000BE9EB00D11245B2F189F80011124012F0E
:100D700011275901A01AB10AAE9E8001AF9E100D35
:100D8000BE9E100D11245901A81AB108AE9CC001D5
:100D9000AF9C900DBE9C900D1124892F9927281B84
:100DA000390B2E9FC0012F9F900D3E9F900D112457
:100DB000E92F62307105A1F050F46115710509F455
:100DC0009DCF6130710581F0EB2F512F97CF6430AB
:100DD000710569F080F06630710509F48FCFF4CFAA
:100DE000E42F4B2F592F8ACFE42F412F87CFEB2FA2
:100DF000542F492F83CF4B2F5D2DE12F7FCF909123
:100E0000FF0292FF06C0282F28712830F9F4877F4F
:100E1000846093FF06C0282F28712831F1F4877E63
:100E200084612091000320FF06C0382F38713830CC
:100E3000D9F4877F816021FF06C0282F28712831CF
:100E4000D1F4877E816194FD877E0895282F2471D7
:100E50002430F9F68B7F8860DCCF282F2471243171
:100E600001F78B7E8861DDCF382F3171313019F772
:100E70008E7F8860E0CF282F2171213121F78E7E6F
:100E80008861E1CFCF93DF93972F70E026E0929FA8
:100E9000600D711D1124FB0134E5839FE00DF11DF0
:100EA0001124EE0FFF1FEF54FD4FC591D491CE01D9
:100EB000C238D105B9F1E8F5C133D10509F499C0BB
:100EC00050F5C932D10509F48DC0CA32D10509F4F3
:100ED00097C0C11540E5D40708F0C3C0C11550E460
:100EE000D50708F0C2C1C83ED10508F0A2C0C13E76
:100EF000D10568F5C83AD10508F089C0C53AD105D1
:100F000008F00FC1C130D10511F1209709F443C099
:100F10002497E8F440C0C533D10509F45CC0C93357
:100F2000D105B9F62091FF02237089F080EE90E0A0
:100F30000EC0C33ED10591F168F4C03ED105F9F071
:100F4000C23ED10531F62091FF0222FD20C0DF9183
:100F5000CF910895C63ED10561F1C73ED10581F11B
:100F6000C43ED10509F0B5CF2091000321FFEFCF9A
:100F70008091FF0284FD0FC087EE90E0E8CF2091C2
:100F8000FF0220FDC2C13091000330FFE0CF83EEAD
:100F900090E024FFDCCF90E080E0D9CF2091FF02E9
:100FA00022FDB6C13091000330FDC0CF24FFCFCF6A
:100FB000F2CF2091FF0223FFCACF24FDECCFDCCF7C
:100FC0002091FF0223FDA7C13091000331FFEECF36
:100FD00084EE90E0BCCF2091FF0225FFB8CF89E2DC
:100FE00090E0B5CF2091FF0225FFB1CF85E390E0DF
:100FF000AECF2091FF0226FFAACF8AE290E0A7CFD2
:101000002091FF0226FFA3CF81E390E0A0CFCF3B4A
:10101000D10508F495C0FE01E05CF109E032F1056C
:1010200008F0B9CFEE0FFF1FE455FF4F8591949163
:101030008ECFC11520E2D20760F4C11531E0D3078D
:1010400008F085CFCE019065C03FD10508F07FCF75
:10105000A2CFC11540E3D40708F0FFC0FE01FF7026
:10106000E1CFC11555E5D50748F5C11584E5D80789
:1010700008F02CC1C11592E5D90750F4C11521E53E
:10108000D20708F4F6C09C2F8827816F906A5FCF43
:101090009C2F96959695AE0143705527C115D34563
:1010A00008F005C121E030E002C0220F331F4A954D
:1010B000E2F750E2959FC0011124F5C0C1154AE541
:1010C000D407A0F4C11559E5D50708F00EC1C11524
:1010D00086E5D80708F4FFC0C11598E5D90708F4DC
:1010E0005ACF9C2F8827806F906A31CFC1152BE58E
:1010F000D20708F450CFCE01C1153CE5D30708F460
:1011000001C190568115904208F045CF8D2F8F7107
:101110000E94FF0690E0982F882788279F718C2BCC
:10112000E2C081E890E4C53AD10509F410CF82E825
:1011300090E4C63AD10509F40ACF83E890E407CFDA
:1011400082EE94E4C83AD10509F401CF89EE94E423
:10115000C93AD10509F4FBCE8AEE94E4CA3AD10526
:1011600009F4F5CE85EB94E4CB3AD10509F4EFCE42
:1011700086EB94E4CC3AD10509F4E9CE83EB94E410
:10118000CB3BD10509F4E3CE84EB94E4CC3BD10511
:1011900009F4DDCE87EB94E4CD3AD10509F4D7CE3E
:1011A0008CEC94E4C03BD10509F4D1CE8DEC94E4F1
:1011B000CE3AD10509F4CBCE83E895E4CF3AD105F8
:1011C00009F4C5CE8AE895E4C13BD10509F4BFCE48
:1011D00082E995E4C23BD10509F4B9CE84E995E4EE
:1011E000C33BD10509F4B3CE81E296E4C43BD105FB
:1011F00009F4ADCE83E296E4C53BD10509F4A7CE50
:1012000084E296E4C63BD10509F4A1CE85E296E4DA
:10121000C73BD10509F49BCE86E296E4C83BD105D5
:1012200009F495CE87E296E4C93BD10509F48FCE47
:101230008FE694E4CD3BD10509F489CE80E794E4B0
:10124000CE3BD10509F483CE80E094E4CA3BD105BE
:1012500009F07DCE8AE296E47ACECE019927D3FFBB
:1012600002C0986C74CE906C72CECE019F70906A62
:101270006ECE9E01E4E036952795EA95E1F723705E
:101280008C2F86958695837050E2859FC00111242E
:10129000AC01522B9A01C37081E090E002C0880F2C
:1012A000991FCA95E2F7822B932B9C6850CE21E0C0
:1012B00030E002C0220F331F4A95E2F740E2949FCC
:1012C000C0011124822B932B9A6841CE9C2F882732
:1012D000846F906A3CCE8C2F0E94FF0690E0982F7E
:1012E000882788279F71906232CE8C2F8F700E9442
:1012F000FF0634E0D695C7953A95E1F7CF709C2F5D
:10130000906925CE9927906622CE89E390E01FCE82
:1013100082EE90E01CCE86EE90E019CEBF92CF9286
:10132000DF92EF92FF920F931F93CF93DF938C0185
:10133000C0900203D0900303E0900403F0900503F3
:101340008091DE029091DF02A091E002B091E10273
:10135000C82AD92AEA2AFB2ACFE1D0E0BC2ED7013D
:10136000C6010C2E04C0B695A795979587950A944B
:10137000D2F780FD0EC0219788F7B12C8B2DDF911D
:10138000CF911F910F91FF90EF90DF90CF90BF9082
:101390000895B8018C2F0E944207019761F3EECFA8
:1013A000CF93DF93EC010E948E09BE01DF91CF91B4
:1013B0000C9442070E94D009292F2F7092959F709C
:1013C00092509E3078F4E92FF0E0E756F74D0C94F8
:1013D0000527803F19F020F4883E20F481E008952D
:1013E000843FE1F380E00895883EC0F3813FD1F768
:1013F000F5CF822F869586958695089527982F9804
:10140000089526982E98089525982D980895569811
:101410005E980895279A2F9A0895269A2E9A0895ED
:10142000259A2D9A0895CF92DF92EF92FF92CF9353
:101430006B017C01C701AA27BB27C0E10097A1056A
:10144000B10519F4D701CB01C0E0492F5A2F6B2FFA
:101450007727411551056105710519F0C85FDB015A
:10146000CA01AC01BD01E4E07695679557954795B3
:10147000EA95D1F7411551056105710519F0CC5F69
:10148000DB01CA01AC01BD0132E076956795579545
:1014900047953A95D1F7411551056105710519F048
:1014A000CE5FDB01CA01B695A79597958795892BE5
:1014B0008A2B8B2B09F0CF5F0E94070A0E94040A37
:1014C0000E94010A0E94FE09C150C73040F4EC2F6F
:1014D000F0E0E955F74D0C9405270E94100AC7016A
:1014E000B601CF91FF90EF90DF90CF9008950E94CA
:1014F000100A0E940D0AF3CF0E94100A0E940A0AE5
:10150000EECF0E94100A0E940D0AF8CF0E94130A23
:101510006093020370930303809304039093050385
:101520000C94D8050F931F9341E050E060E070E009
:1015300004C0440F551F661F771F8A95D2F7CB0151
:10154000BA01609570958095909500910203109175
:101550000303209104033091050360237123822348
:1015600093231F910F910C94860A9091D902809534
:1015700089238093D902282F277071F4282F082EF1
:10158000000C330B9217130639F0859585958595D8
:101590000E94920A1092D90208950F931F9341E07E
:1015A00050E060E070E004C0440F551F661F771FD5
:1015B0008A95D2F78091020390910303A0910403CE
:1015C000B09105038A019B01082B192B2A2B3B2B79
:1015D000C901B8011F910F910C94860A84B1807FD4
:1015E00084B985B1807F85B98AB1837F8AB98BB18F
:1015F000837F8BB93E984698089580B38C7080BBEA
:1016000081B3836F81BB0895CF93DF9300D00F9296
:10161000CDB7DEB79C019091E602911129C080916F
:101620005B03843049F584E089833B832A8382E02D
:101630008093E9008FEF9091E800815095FD06C0FE
:1016400095ED9A95F1F700008111F5CF8091E800B2
:1016500085FF12C050E040E063E070E0CE010196EB
:101660000E940E038091E8008E778093E80004C00A
:101670009230C9F29430B9F20F900F900F90DF9131
:10168000CF910895CF93DF9300D00F92CDB7DEB7FF
:1016900020915B03243031F523E0298380589109A0
:1016A0009B838A8382E08093E9008FEF9091E8002A
:1016B000815095FD06C095ED9A95F1F700008111D6
:1016C000F5CF8091E80085FF0DC050E040E063E079
:1016D00070E0CE0101960E940E038091E8008E77A3
:1016E0008093E8000F900F900F90DF91CF910895B5
:1016F000CF93DF93EC018091E602811107C08091C6
:101700005B03843029F0DF91CF9108958230C9F7CF
:1017100080911F018823A1F18091FF0287FF30C0D3
:1017200060E282E08093E9008FEF9091E8008150C1
:1017300095FD06C095ED9A95F1F700008111F5CF62
:101740008091E80085FFDFCF80911F0170E050E0BD
:1017500040E0811104C050E040E068E070E0CE015C
:101760000E940E038091E8008E778093E80080E26B
:10177000FE01A9E3B3E001900D928A95E1F7C3CF92
:1017800068E081E0CFCF882309F402C18238B9F440
:101790000E94F00581FDFCC089E30E94ED040E94D7
:1017A0007D042FEF81EE94E0215080409040E1F7DE
:1017B00000C0000089E30E94C2040C947D048338B9
:1017C000A1F40E94F00580FDE3C083E50E94ED04D2
:1017D0000E947D042FEF81EE94E0215080409040E4
:1017E000E1F700C0000083E5E6CF8438A1F40E9451
:1017F000F00582FDCDC087E40E94ED040E947D04C7
:101800002FEF81EE94E0215080409040E1F700C03E
:10181000000087E4D0CF9CEF980F913A18F40E9413
:10182000ED04CBCF90E2980F983068F4877021E0F8
:1018300030E001C0220F8A95EAF78091DC02822B0A
:101840008093DC02BACF9BE5980F933070F4853A11
:1018500031F0863A39F083E890E00C94C20581E8D3
:1018600090E0FBCF82E890E0F8CF98E5980F9731B1
:1018700008F08EC0883A09F446C0893A09F446C097
:101880008A3A09F446C08B3A09F446C08C3A09F406
:1018900046C08B3B09F446C08C3B09F446C08D3AE8
:1018A00009F446C0803B09F446C08E3A09F446C0AC
:1018B0008F3A09F446C0813B09F446C0823B09F4E3
:1018C00046C0833B09F446C0843B09F446C0853BCF
:1018D00009F446C0863B09F446C0873B09F446C07C
:1018E000883B09F446C0893B09F446C08D3B09F4A6
:1018F00046C08E3B09F446C08A3B09F446C090E0DE
:1019000080E00C94AC0582EE90E0FBCF89EE90E095
:10191000F8CF8AEE90E0F5CF85EB90E0F2CF86EB42
:1019200090E0EFCF83EB90E0ECCF84EB90E0E9CF59
:1019300087EB90E0E6CF8CEC90E0E3CF8DEC90E08D
:10194000E0CF83E891E0DDCF8AE891E0DACF82E969
:1019500091E0D7CF84E991E0D4CF81E292E0D1CF7A
:1019600083E292E0CECF84E292E0CBCF85E292E0B8
:10197000C8CF86E292E0C5CF87E292E0C2CF8FE681
:1019800090E0BFCF80E790E0BCCF8AE292E0B9CF91
:101990000895CF93C82F0E94C30BC93349F42FEF8A
:1019A00087EE93E0215080409040E1F700C00000B6
:1019B0008C2FCF910C94FC058823B9F05198599A3B
:1019C0005098589A95E09A95F1F70000509A5898D7
:1019D00095E09A95F1F70000882311F0519A5998F3
:1019E00085E08A95F1F700000895519A5998E8CF5B
:1019F000CF93DF93D82FC8E08D2F80780E94DC0C26
:101A0000DD0FC150C9F780E00E94DC0C85E08A95AB
:101A1000F1F7000085E08A95F1F7000080E0DF91A2
:101A2000CF9108950F931F93CF93DF93809130034D
:101A300080FD0AC0E5E1F2E0118210821282349644
:101A400052E0E135F507C1F70FB71091BC00F894EB
:101A50008091BC008B7F8093BC008BB18C7F8BB955
:101A60005098589A5198599A85E08A95F1F7000054
:101A70008AB18C7F8AB9E5E0EA95F1F70000519AC6
:101A80005998F5E0FA95F1F70000509A589855E00A
:101A90005A95F1F7000084E80E94F80CC5E1D2E005
:101AA00089910E94F80C82E0C135D807C9F7509897
:101AB000589AE5E0EA95F1F700005198599AF5E057
:101AC000FA95F1F700000FBF1093BC00579A3BB195
:101AD0003F772BB120684FB7F89485E192E0FC0185
:101AE0005191CF0168E02BB9000000C057FF3BB90E
:101AF000550F000000C000C000C03BB900C06A958F
:101B000091F7F2E081359F0751F74FBFDF91CF91F9
:101B10001F910F910895EF92FF920F931F93CF9310
:101B2000DF938C01C5E1D2E0F12CE12CF801948126
:101B30006091320380913103F7E0EF16F104FCF479
:101B40009923F9F09E01409133030E9469062FEF1B
:101B5000E21AF20A24968FE0E816F10439F70E949F
:101B6000120DF801848190E0019681709927848399
:101B7000DF91CF911F910F91FF90EF9008959923DE
:101B800009F39E0140E0E1CFEF92FF921F93CF93C4
:101B9000DF93EC0185E1E82E82E0F82E10E08C81E5
:101BA00097014091330360913203810F0E946906CF
:101BB0001F5E84E0E80EF11C1F3F89F70E94120DA2
:101BC0009A818C8190FF08C08F5F8C83DF91CF91C9
:101BD0001F91FF90EF9008958150F7CFBF92CF9261
:101BE000DF92EF92FF920F931F93CF93DF93FC014D
:101BF0008281DD24DA9480FD02C0DD24D39405E1E6
:101C000012E0D0E0C0E02FE0B22EF8011182108285
:101C1000128294E0E92EF12CC12C809112028C0DDD
:101C200080310CF43DC06B2D0E94CF26892F082EE9
:101C3000000C990B8C179D0791F4809133038E9DB6
:101C4000A0018F9D500D11245595479555954795A9
:101C5000980160913203809131030E946906CD0C96
:101C6000F1E0EF1AF108C9F621960C5F1F4FCF3053
:101C7000D10559F60E94120D8091120291E0D912FD
:101C800015C0811111C08EE080931202DF91CF91B7
:101C90001F910F91FF90EF90DF90CF90BF9008952C
:101CA00087FFC5CF815FC3CF8150EECF90E0019613
:101CB000BE010E94F126E8CF0F931F93CF93DF93CD
:101CC000C5E1D2E0FE01118210821282349682E0D8
:101CD000E135F807C1F710E000E080911302082E0B
:101CE000000C990B081719078CF180911201082E2E
:101CF000000C990B801791074CF19E014091330322
:101D000060913203809131030E9469060F5F1F4F7B
:101D100024960F30110509F70E94120D80911101D0
:101D200090911302980F9093130220911201280FA3
:101D300020931201121614F49E301CF081958093AA
:101D40001101DF91CF911F910F910895198218828F
:101D50001A82DCCFEF92FF920F931F93CF93DF9302
:101D6000EC018C819D810196817099279D838C83E4
:101D700085E1E82E82E0F82E10E005E5812F8695BA
:101D80002C813D81820F932F911D8170970140918D
:101D9000330360913203809F802D11240E946906D5
:101DA0001F5F84E0E80EF11C1F3041F7DF91CF91F7
:101DB0001F910F91FF90EF900C94120D90913003B2
:101DC00090FF0CC0E5E1F2E08183608342833496AA
:101DD00092E0E135F907C1F70C94120D08950F93C5
:101DE0001F93CF93DF9300D000D0CDB7DEB78C0127
:101DF0008091140281110AC09E012F5F3F4F4FEF67
:101E00006FEF0E9469068A8180931402F801648151
:101E1000613069F08091140240E0662361F040E097
:101E2000623011F44091140280E060E004C06091DF
:101E3000140240E080E00E94DE0EF801848190E010
:101E4000019663E070E00E94F12684830F900F906A
:101E50000F900F90DF91CF911F910F910895CF9325
:101E6000DF9300D000D0CDB7DEB79091300390FF64
:101E70000AC09E012F5F3F4F0E9469064B81698116
:101E80008A810E94DE0E0F900F900F900F90DF91CD
:101E9000CF910895CF93DF93EC01EC81F0E0EF5404
:101EA000FE4F4491E0E3F3E0628181810E942F0FB5
:101EB0008C818F5F8C83DF91CF910895CF93DF93D7
:101EC000EC01E0E3F3E0438162818C810E942F0FFB
:101ED0008C818F5F8C83DF91CF910895EF92FF9279
:101EE0000F931F93CF93DF930E94070A0E94040A67
:101EF0000E94010A0E94FE0988E8E82EF12C8FEF6B
:101F000090E0F701918380830AE810E0F801918363
:101F10008083CCE8D0E0998388830E94100AFFEF89
:101F200020E782E0F15020408040E1F700C000004F
:101F30000E940D0A9FEFE0E7F2E09150E040F04090
:101F4000E1F700C000000E940A0A2FEF80E792E04C
:101F5000215080409040E1F700C000000E94040A38
:101F6000EFEFF0E722E0E150F0402040E1F700C061
:101F700000000E94010A8FEF90E7E2E0815090405C
:101F8000E040E1F700C000000E94FE098091ED02F0
:101F90008770FFEF8F9FC0011124959587959595C8
:101FA00087959927F70191838083F8019183808336
:101FB000998388830E94070A0E94040A0E94010AEA
:101FC000DF91CF911F910F91FF90EF900C94FE093C
:101FD000CF9384E090E00E941727C82F81E290E021
:101FE0000E941727982F8C2FCF91089590E080E0C2
:101FF0000E94252721E08F3E9E4F09F020E0822F8E
:1020000008956091E9028CE090E00C942B27CF9228
:10201000DF92EF92FF926B017C010E945A06B7019A
:10202000A60188E090E0FF90EF90DF90CF900C94B5
:102030003D275F926F927F928F929F92AF92BF9255
:10204000CF92DF92EF92FF920F931F93CF93DF9384
:1020500000D000D0CDB7DEB7182F762E042F622E19
:102060009091300390FF29C0E92FE695AE2FB0E0A4
:10207000A05EBE4F8C9180932D039E7F923089F598
:102080009E012F5F3F4F812F0E9469064B8169811E
:102090008A810E94DE0E1093310370923203009306
:1020A0003303662051F060913003709131038091C9
:1020B0003203909133030E9407100F900F900F90FE
:1020C0000F90DF91CF911F910F91FF90EF90DF90D4
:1020D000CF90BF90AF909F908F907F906F905F90C8
:1020E0000895823019F400913303D5CF863019F466
:1020F00010913103D0CF8930D9F3893161F6E9519C
:102100008E2F8170582EE695F0E0E455FE4FA59095
:10211000B490BB2485E1E82E82E0F82ED12CC12CAE
:102120009FE0892E912CC601B4010E94DD26812FEB
:10213000511013C0860F9701402F672D0E9469062A
:10214000CA0CDB1C84E0E80EF11C81E5E81682E095
:10215000F80649F70E94120D9ECF861BECCFE0E3F4
:10216000F3E083E0808311828FEF82838383148284
:1021700060817181828193810C9407106FEE7EEFF4
:1021800090E080E00E94492760E082E090E00E94B9
:102190002B2760E083E090E00E942B271092DE0264
:1021A0001092DF021092E0021092E10260E084E0FF
:1021B00090E00E942B2760E081E290E00E942B27B4
:1021C00060E085E090E00E942B2760E086E090E0F0
:1021D0000E942B276FEF87E090E00E942B2740E0C2
:1021E00050E0BA0188E090E00E943D2760E08DE079
:1021F00090E00E942B2740E050E0BA0188E190E097
:102200000E943D2760E087E190E00E942B2740E09C
:1022100050E0BA018CE190E00E943D2760E080E24E
:1022200090E00E942B271092ED021092EE02109285
:10223000EF021092F00284E080618093ED02409101
:10224000ED025091EE026091EF027091F0028FE08A
:1022500090E00E943D2740E050E0BA0183E190E029
:102260000C943D271092DC0280911F01E0EFF1E019
:10227000882359F08091FF0287FF07C08EE1DF01BC
:102280001D928A95E9F70C94D80586E0F8CF1F9344
:10229000CF93DF93CDB7DEB7AA970FB6F894DEBF22
:1022A0000FBECDBF8DE593E02091F100FC0121939D
:1022B000CF01F3E085369F07B9F780915E03833045
:1022C00009F46FC0B8F4813009F446C0823009F4D3
:1022D000B0C08091E80083FF87C280915D03909138
:1022E0005E039A3008F080C2E92FF0E0E255F74D26
:1022F0000C9405278A3009F48BC08B3009F46EC02A
:10230000893039F780915D03813219F7809161033B
:10231000909162030297E8F68091E800877F8093AE
:10232000E8008091E80082FF37C09091F30080912F
:10233000F200029729F48091F1008B7F813021F423
:102340008091F100809338038091E8008B7780932F
:10235000E8000E943803BDCF80915D03813A09F007
:10236000B8CF8091E800877F8093E8008091610377
:1023700090916203892B61F460E289E393E070E05D
:102380000E94EA038091E8008B778093E800A1CF58
:1023900060E090E080E0F3CF80915B038111C1CFDA
:1023A00098CF80915D03813A09F093CF80916103CA
:1023B00090916203892B09F08CCF8091E800877F90
:1023C0008093E8008091E80080FFFCCF80911F019E
:1023D0008093F1008091E8008E77B9CF80915D0302
:1023E000813209F076CF8091610390916203892B4D
:1023F00009F06FCF8091E800877F8093E8000E940A
:10240000380380915F0380931F010E94321161CFD6
:1024100080915D03813209F05CCF8091E800877F75
:102420008093E8000E943803809160038093370313
:1024300050CF80915D03813A09F04BCF8091E80045
:10244000877F8093E8008091E80080FFFCCF809137
:102450003703BECF803899F0823809F0C5C180912A
:1024600061038F70873008F0BFC18093E9008091CD
:10247000EB0085FB882780F91092E90006C0809167
:10248000590390915A03911182609091E800977FCF
:102490009093E8008093F1001092F1008091E800A1
:1024A0008E779EC1882309F48CC1823009F09CC1CB
:1024B00080915F0381118FC1809161038F702FEF35
:1024C000280F263008F090C18093E9002091EB009E
:1024D00020FF81C1933031F48091EB0080628093C2
:1024E000EB0079C19091EB0090619093EB0021E0BB
:1024F00030E001C0220F8A95EAF72093EA0010929B
:10250000EA008091EB008860EACF81116DC11091E3
:102510005F031F778091E3008078812B8093E30035
:102520008091E800877F8093E8000E9438038091C3
:10253000E80080FFFCCF8091E30080688093E30097
:1025400082E0111183E080935B034EC1805882309A
:1025500008F04AC180915F03909160038C3D23E0B5
:102560009207A1F583E08A838AE289834FB7F894C2
:10257000DE01139620E03EE051E2E32FF0E05093BD
:102580005700E49120FF03C0E295EF703F5FEF70CA
:102590008E2F90E0EA30C0F0C7968D939D932F5F09
:1025A000243159F74FBF8091E800877F8093E8007E
:1025B0006AE270E0CE0101960E94EA038091E80091
:1025C0008B778093E80010C1C096E7CF40916103FC
:1025D00050916203292F33272330310509F445C078
:1025E00078F52130310509F47BC08BE390E0E4EC11
:1025F000F4E02230310509F0F7C02091E800277F90
:102600002093E800209163033091640382179307BD
:1026100008F49C0140E02115310509F070C041111A
:102620006EC08091E80082FDC9CF80915B03882352
:1026300029F2853019F28091E80083FFF2CFBECFF6
:102640002132310509F440C02232310509F0CCC0F5
:102650004115510509F44EC04130510509F0C4C07F
:1026600081E790E0E3E1F4E0C8CF9927813091055C
:10267000D9F0009771F082309105F1F0039709F0DD
:10268000B3C0E1E1F5E0E4918E2F90E0E1E1F5E007
:1026900007C0E9E3F5E0E4918E2F90E0E9E3F5E08F
:1026A000009709F4A1C0A9CFEFE2F5E0E4918E2FE5
:1026B00090E0EFE2F5E0F4CFE7E1F5E0E4918E2F72
:1026C00090E0E7E1F5E0ECCF4115510571F04130C4
:1026D000510509F089C089E090E0EFEEF4E08DCF7C
:1026E00082E190E0EFEFF4E088CF89E090E0E6ED62
:1026F000F4E083CF80E490E0E4E8F4E07ECF8091E2
:102700005B03882309F45ACF853009F457CF8091B1
:10271000E80083FD53CF8091E80082FD82CF809155
:10272000E80080FF78CF9091F3008091F2002115AE
:10273000310519F08830910550F041E0089709F013
:1027400040E08091E8008E778093E80064CF449168
:102750004093F1003196215031090196E8CF80383D
:1027600009F042C08091E800877F8093E800809163
:102770005C038093F10092CE811136C010915F030B
:10278000123090F58091E800877F8093E8001093E5
:102790005C030E943803112311F084E005C080918E
:1027A000E30087FDFACF81E080935B0342E061ECB8
:1027B00081E00E94570342E261EC82E00E945703ED
:1027C00013C080915F03813079F481E0933009F088
:1027D00080E080935A031092E9008091E800877F9F
:1027E0008093E8000E9438038091E80083FF0AC0CC
:1027F0008091E800877F8093E8008091EB00806201
:102800008093EB00AA960FB6F894DEBF0FBECDBF43
:10281000DF91CF911F910895CF93C82F873070F526
:102820008091130190911401892B89F564E670E081
:1028300080E40E941C269093140180931301892B3D
:10284000D1F464E670E082E10E947826909314014E
:1028500080931301892B79F481E090E001C0880F07
:10286000CA95EAF764E670E080950E947826909316
:10287000140180931301CF910C94CB268A30B9F0C8
:1028800040F4883071F0893079F0209A2898CF91FF
:1028900008958C3091F070F08D30B9F73E9A4698DB
:1028A000F6CF219A2998F3CF229A2A98F0CF239A2B
:1028B0002B98EDCF529A5A98EACF539A5B98E7CF6C
:1028C00080E290E0909314018093130180911102B3
:1028D00081110EC00E94162681E0809311022FEF15
:1028E00083ED90E3215080409040E1F700C000006C
:1028F00064E670E080E40E941C26909314018093AB
:102900001301892B09F04EC064E670E080E00E945C
:1029100078269093140180931301892B09F042C00B
:1029200064E670E080E00E94782690931401809322
:102930001301892BB9F564E670E08FE30E947826D5
:102940009093140180931301892B61F50E94CB268B
:1029500064E670E080E40E941C269093140180934A
:102960001301892BF9F464E670E08CE00E9478266C
:102970009093140180931301892BA1F464E670E015
:1029800080E00E9478269093140180931301892B94
:1029900049F464E670E08FE30E9478269093140176
:1029A000809313010E94CB26809113010895CF9349
:1029B000873008F040C08091130190911401C0E06D
:1029C000892B71F464E670E080E40E941C269093E9
:1029D000140180931301892B31F0C0E00E94CB26B3
:1029E0008C2FCF91089564E670E083E10E947826F1
:1029F0009093140180931301892B79F764E670E0BA
:102A000081E40E941C269093140180931301892B6A
:102A100021F784E690E00E94A72697FF05C09093D7
:102A2000140180931301D9CFC82FC09510921401BF
:102A300010921301D3CFCFB18FB1869586958C7349
:102A4000C3708C2BC82FC095CBCF1F920F920FB69F
:102A50000F9211242F933F934F935F936F937F9324
:102A60008F939F93AF93BF93CF93DF93EF93FF9396
:102A7000D091E900DF708091EC00C82FC17080FD1B
:102A8000C0E81092E9008091F000877F8093F00009
:102A900078940E9447111092E9008091F0008860BC
:102AA0008093F000CD2BCF70C093E900FF91EF91A0
:102AB000DF91CF91BF91AF919F918F917F916F9156
:102AC0005F914F913F912F910F900FBE0F901F90EC
:102AD000189578941F921FB61F9211248F939F937D
:102AE000AF93BF938091E2029091E302A091E40240
:102AF000B091E5020196A11DB11D8093E202909371
:102B0000E302A093E402B093E502BF91AF919F91DD
:102B10008F911F901FBE1F9018952FB7F89480912A
:102B2000E2029091E302A091E402B091E5022FBF8E
:102B300008950F931F93CF93DF93C62FD42F022FA7
:102B4000FC0182818823A1F0609366020E948D15AA
:102B50009093520280935102C77081E001C0880FA8
:102B6000CA95EAF7DF91CF911F910F910C94A205BE
:102B700010916602161335C0809151029091520255
:102B80000E944D04883C910560F5C0E2CD0F1D17F1
:102B9000B9F080E2810F883040F4177081E001C005
:102BA000880F1A95EAF70E949705C83048F481E02B
:102BB0009D2F977001C0880F9A95EAF70E94A20591
:102BC000802F0E94C90CC83098F4D77081E001C0F2
:102BD000880FDA95EAF7DF91CF911F910F910C944E
:102BE0009705C77081E001C0880FCA95EAF7F3CF57
:102BF000DF91CF911F910F910895609130036695F9
:102C000070E04BE050E086E091E00E948A28892B3A
:102C100019F481E080932E030E948D159093280370
:102C20008093270308959091300390FF36C09170F0
:102C3000811129C0926090933003662351F0609116
:102C400030037091310380913203909133030E94DD
:102C5000071060913003669570E04BE050E086E02D
:102C600091E00E948A28892BA9F010922E0381E01E
:102C700080932A0320E040913303609132038091D6
:102C800031030C941910853210F09864D4CF880F5A
:102C9000982BD1CF0E94FD15EACF08951F920F9275
:102CA0000FB60F9211242F933F934F935F936F931F
:102CB0007F938F939F93AF93BF93EF93FF938091F5
:102CC000E10082FF09C08091E20082FF05C080918F
:102CD000E1008B7F8093E1008091DA0080FF24C0C7
:102CE0008091D80080FF20C08091DA008E7F809391
:102CF000DA008091D90080FFB0C080E189BD82E117
:102D000089BD09B400FEFDCF81E080935B03809113
:102D10002F03811109C00E94BE020E948903809185
:102D2000E20084608093E2008091E10080FF17C0A0
:102D30008091E20080FF13C08091E2008E7F80933B
:102D4000E2008091E20080618093E2008091D800EF
:102D500080628093D80019BC85E080935B038091EA
:102D6000E10084FF3EC08091E20084FF3AC080E130
:102D700089BD82E189BD89B5982F917080FFFBCF15
:102D80008091D8008F7D8093D8008091E1008F7E64
:102D90008093E1008091E2008F7E8093E200809139
:102DA000E20081608093E20080915C03882309F453
:102DB0005AC084E080935B030E9432110E94F005A8
:102DC0001092360380913503882349F080913003B7
:102DD00081608093300360E086950E9413160E9404
:102DE000FD158091E10083FF27C08091E20083FF01
:102DF00023C08091E100877F8093E10082E080938F
:102E00005B0310925C038091E1008E7F8093E10070
:102E10008091E2008E7F8093E2008091E2008061E9
:102E20008093E20042E060E080E00E9457038091DE
:102E3000F00088608093F000FF91EF91BF91AF9117
:102E40009F918F917F916F915F914F913F912F91C2
:102E50000F900FBE0F901F90189519BC10925B0336
:102E600010922F0361CF8091E30087FD93E0909350
:102E70005B03A2CF61E00C9413168091300386951A
:102E8000815009F484E261E00C94131680913003C0
:102E900086958F5F853208F081E061E00C9413160F
:102EA0004F925F926F927F928F929F92AF92BF925A
:102EB000CF92DF92EF92FF920F931F93CF93DF9306
:102EC00000D000D00F92CDB7DEB76C01FC0183813A
:102ED0009481892B39F01081F180812F8F218F3FD0
:102EE00009F0BBC70F900F900F900F900F90DF91DC
:102EF000CF911F910F91FF90EF90DF90CF90BF90F7
:102F0000AF909F908F907F906F905F904F900895BB
:102F10000E948E09082F682F89819A810E944A0594
:102F2000E12FF0E026E0F29EE00DF11D112434E5E2
:102F3000039FE00DF11D1124EE0FFF1FEF54FD4F15
:102F400005911491F60182810230FDE51F0709F019
:102F5000FAC08823E9F18091ED0291E0980F977013
:102F6000887F953008F4892B8093ED028091ED02E3
:102F700087702FEF829FC0011124959587959595B5
:102F800087959927909389008093880090938B0070
:102F900080938A0090938D0080938C004091ED0285
:102FA0005091EE026091EF027091F0028FE090E09C
:102FB0000E943D27609102037091030380910403F6
:102FC000909105030E94130AF60182818111DBC0F2
:102FD00017FF28C1F6018281882309F44DC0809132
:102FE000DC02809365021092DC028091E90281305C
:102FF00009F4F3C0882309F4ECC0823009F4FAC064
:10300000843009F4FEC08FE39CE90197F1F700C01A
:1030100000005801E894B7F84CE0E42EF12C95013B
:103020000E2C02C0369527950A94E2F72F7087E29E
:1030300090E031F0822F90E02A3008F0E7C04D9602
:103040000E94C90C94E0E91AF108ECEFEE16EFEFDC
:10305000FE0629F78091E902813009F4DDC088235A
:1030600009F4D6C0823009F4D3C0843009F4D8C042
:10307000809165028093DC02F6018281882309F445
:10308000FDC6109266020B3CFCE51F0709F4EDC279
:1030900008F076C1033C3CE5130709F474C208F05C
:1030A0004BC10631ECE51E0708F00AC10230FCE511
:1030B0001F0708F0B2C101152CE5120709F401C27F
:1030C00001301C4509F43AC2F601008111818823C0
:1030D00009F426C4C8010E948E09F82E682FC80181
:1030E0000E944A05B8018F2D0E9442078C01B82E1C
:1030F000F601E580E2943FE0E322F280F1101092C5
:10310000DB028091D902877079F0FF2069F080E2BC
:10311000800F883048F082E00E94B50A8091D90281
:103120008770AA24A3948111A12C912E92942FE050
:103130009222FBE0F91508F42DC4E92DF0E0E854E3
:10314000F74D0C94052704303DE5130709F03CCFFB
:10315000882309F4C7CE81E00F900F900F900F9055
:103160000F90DF91CF911F910F91FF90EF90DF9023
:10317000CF90BF90AF909F908F907F906F905F9017
:103180004F900C943A17033EFCE51F07F1F058F4FA
:10319000013E3CE51307A1F0023E8CE5180709F05B
:1031A00017CF81E00AC0043E9CE5190781F084E056
:1031B000053EECE51E0709F00BCF8093E90202C043
:1031C0001092E9020E94011003CF82E0F6CF83E063
:1031D000F4CF82EE0E94C30B16CF83E00E948D05D0
:1031E00088E10E94C30B88E10E94FC0583E00E94F5
:1031F000820509CF82EE0E94C30B87E50E94C90CAD
:1032000002CF86EE0E94C90C88E1F8CF069718CF4E
:1032100082EE0E94FC052CCF8CE20E94C90C28CFC4
:1032200088E2FBCF033FFCE51F07D9F140F5083DDD
:103230003CE5130791F1093D8CE51807F1F1073DD5
:103240009CE5190709F018CF26E241EE61EEC601B0
:103250000F900F900F900F900F90DF91CF911F91D3
:103260000F91FF90EF90DF90CF90BF90AF909F9025
:103270008F907F906F905F904F900C949915053FC1
:10328000ECE51E07B1F088F0063F2CE5120709F0C7
:10329000F3CE27E245EE66EEDACF27E245EE65EEA5
:1032A000D6CF26E241EE60EED2CF27E245EE64EEC5
:1032B000CECF26E241EE62EECACF28E241E0EFCF68
:1032C00006319CE5190709F4FBC2023C1C4509F0D4
:1032D000FBCE8091300380FF51C18E7F80933003FD
:1032E00060913003709131038091320390913303E8
:1032F0000E94071010922E039FEFE0E7F2E091503A
:10330000E040F040E1F700C000000F900F900F90F8
:103310000F900F90DF91CF911F910F91FF90EF9041
:10332000DF90CF90BF90AF909F908F907F906F90E5
:103330005F904F900C94120D073CFCE51F0709F4B9
:1033400077C180F4053C3CE5130709F452C108F449
:1033500035C18091310321E0409133036091320304
:103360008C504FC1093C9CE5190709F474C108F45D
:103370006BC1409133032CE0421B08F440E071C163
:10338000033DFCE51F0709F4B4C120F50F3C3CE503
:10339000130709F496C178F40D3C9CE5190709F46C
:1033A000DACE08F488C10E9452068250833008F4B5
:1033B00009C182E0D1CE013DFCE51F0709F491C1AE
:1033C00008F487C10E9452068551823008F4FAC081
:1033D00085E1C2CE0D3D3CE5130709F496C188F4A2
:1033E000053DECE51E0709F48EC108F484C10C3DCF
:1033F0001C4509F069CE882309F474CD1092E602C9
:1034000071CD0E3D3CE5130709F4A1C098012A5F78
:103410003C452730310508F057CE882309F454CEB7
:103420000E94F60F811102C00E94BE100E94E80F98
:10343000909300038093FF020F302CE5120709F4EC
:1034400020C208F099C108308CE5180709F4FFC1C3
:1034500008F06EC10430ECE51E0709F4E8C108F07D
:1034600058C102302CE5120709F4DDC18091FF023A
:10347000826003301C4509F46DC16091FF02109118
:10348000000384E090E00E942B27612F81E290E00E
:103490000E942B270F900F900F900F900F90DF91AD
:1034A000CF911F910F91FF90EF90DF90CF90BF9041
:1034B000AF909F908F907F906F905F904F900C9403
:1034C00032110E9432118FEF94E3ECE08150904072
:1034D000E040E1F700C00000F89481E08093E00054
:1034E00080E28093D8001092C9008FE19EE401979A
:1034F000F1F700C000001DBA109268001CBC10BE9D
:103500001FBA10927A0010926E0010926F00109203
:103510007100109272001092C9001092BC0014B891
:1035200017B81AB81DB810BA1092BC0015B818B860
:103530001BB81EB811BA0C94003FD4CC909118035C
:10354000892F8E7F90FF816080931803CBCC0F90E2
:103550000F900F900F900F90DF91CF911F910F91CF
:10356000FF90EF90DF90CF90BF90AF909F908F90A3
:103570007F906F905F904F900C94BE10816080930D
:1035800030038695E9CD8091DC028272D9F00F90EC
:103590000F900F900F900F90DF91CF911F910F918F
:1035A000FF90EF90DF90CF90BF90AF909F908F9063
:1035B0007F906F905F904F900C943D178091DC024C
:1035C000827229F30F900F900F900F900F90DF9160
:1035D000CF911F910F91FF90EF90DF90CF90BF9010
:1035E000AF909F908F907F906F905F904F900C94D2
:1035F00046178091310321E04091330360913203FB
:10360000845F0F900F900F900F900F90DF91CF91EC
:103610001F910F91FF90EF90DF90CF90BF90AF90F0
:103620009F908F907F906F905F904F900C941910A7
:10363000609132032FEF620F08F46FEF21E04091A9
:10364000330380913103DDCF609132032FEF621B92
:1036500008F460E0F3CF409133032CE0420F08F40C
:103660004FEF21E060913203ECCF8091340383303F
:1036700018F48F5F809334036091300370913103AD
:1036800080913203909133030F900F900F900F9021
:103690000F90DF91CF911F910F91FF90EF90DF90EE
:1036A000CF90BF90AF909F908F907F906F905F90E2
:1036B0004F900C940710809134038823E9F28150D5
:1036C000D9CF0E9452068650823008F47BCF86E024
:1036D00043CD0E9452068950853008F473CF89E0AB
:1036E0003BCD0E9452068F50853008F46BCF8FE09F
:1036F00033CD88E131CD0E9452068951893008F4DA
:1037000061CF89E129CD83E227CD82E08093E60273
:10371000E9CB06308CE5180709F495C08091FF02CB
:10372000886007301C45B0F08091FF02806212C0B3
:103730000B30ECE51E0709F498C078F409302CE54D
:10374000120709F488C08091FF028C600A301C4582
:1037500009F093CE8093FF0290CE0D308CE51807D0
:1037600009F487C08091FF028D7F0E301C4590F3D5
:103770008091FF02877FEECF0A3FECE51E0709F438
:103780005AC048F502312CE5120709F482C060F4F2
:1037900000318CE5180709F478C08091FF028F7B17
:1037A00001311C45B9F269CE0431ECE51E0709F47C
:1037B0007EC008F474C005311C4509F05ECE8091CE
:1037C000FF0282FB992790F921E0922790FB82F972
:1037D00090FB83F9BFCF0D3F3CE5130709F44DC0C3
:1037E00070F40B3F9CE5190751F1809100038E7F27
:1037F0000C3F1C4509F041CE809300033ECE0F3FA5
:10380000FCE51F0709F44FC060F101151D4509F0E3
:1038100034CE80910003982F909591708E7F892BE4
:1038200090FB81F9E9CF8091FF02816093CF809175
:10383000FF0284608FCF809100038160DDCF809193
:1038400000038260D9CF8091FF02806183CF809195
:10385000FF0280647FCF0E9432118091FF02806856
:1038600079CF809100038360C7CF8091FF028E7F64
:1038700071CF8091FF028B7F6DCF809100038D7F90
:10388000BBCF8091FF028F7E65CF8091FF028F7D3D
:1038900061CF0E9432118091FF028F775BCF8091C0
:1038A000FF02837F57CF809100038C7FA5CF0E94BA
:1038B00032119091FF02892F97FB87F980584ACFE8
:1038C0008091DC028A7A91E009F490E0909367029B
:1038D00081111AC089E20E94ED040F900F900F90A1
:1038E0000F900F90DF91CF911F910F91FF90EF906C
:1038F000DF90CF90BF90AF909F908F907F906F9010
:103900005F904F900C947D0485E3E5CF8091670232
:10391000811104C089E20E94C204DFCF85E3FBCF9E
:10392000C8010E942105F82EDDCB212F2F70E22E39
:10393000107F19F0E29490EFE922FF20C9F0EE2009
:1039400069F080E2800F883010F0B1100BC08091D8
:10395000DC02E82AE092DC020E947D04802F0E94B3
:10396000C30B18C08091DB02E82AE092DB02F4CF9F
:10397000802F0E94FC05EE2069F0E094005E083084
:1039800010F0B1103CC08091DC02E822E092DC0231
:103990000E947D04292D2850330B2430310510F46A
:1039A0000E94F005AA2009F49DCA8091D90280FDE9
:1039B00099CAF60112828595859585950E94CD0A52
:1039C000C6010E9450178091D902859585958595ED
:1039D0000F900F900F900F900F90DF91CF911F914C
:1039E0000F91FF90EF90DF90CF90BF90AF909F909E
:1039F0008F907F906F905F904F900C94920A80917F
:103A0000DB02E822E092DB02C3CF312F3F70832E2E
:103A1000107F103219F0829480EF8822802FBB2013
:103A200041F091E0B91631F1FF2079F1EE2041F13A
:103A300095CFFF2091F09091DD02892F8829E11028
:103A400003C00E94A205A6CFE1E0EE12FACF9817BC
:103A500009F4A0CF8093DD029DCFE11006C00E9443
:103A60007704882D0E94970595CFF1E0EF1609F4B1
:103A700091CFF5CFFF2031F021E02E1508F48ACF49
:103A8000882DDFCFE11086CFECCFEE2051F38933C4
:103A900049F43FEF87EE93E0315080409040E1F7EA
:103AA00000C00000802F0E94FC0574CF812F8695F6
:103AB0008695837061F0813009F06CCFC8019370F6
:103AC000F11002C090E080E00E94AC0563CFC80115
:103AD0009370F11002C090E080E00E94C2055ACFBE
:103AE000812F837009F066C0F11054CF802F82952A
:103AF00086958770880F880F602F6F70462E512C27
:103B0000712C612C082E04C0440C551C661C771CBB
:103B10000A94D2F740E050E0BA0104FF0FC04FE032
:103B200050E060E070E004C0440F551F661F771F2F
:103B30008A95D2F74095509560957095812F86951E
:103B400086958370823019F1D8F40091DE021091CD
:103B5000DF022091E0023091E102813069F04429D6
:103B6000552966297729CB01BA0160237123822365
:103B700093230E94E6050ECF402A512A622A732A17
:103B8000CB01BA016429752986299729F2CF4429E6
:103B90005529662977290091DE021091DF022091D4
:103BA000E0023091E102CB01BA0160277127822740
:103BB0009327DFCF8695FF2011F0812F8170882316
:103BC00009F4E8CE802F829586958770880F880F3C
:103BD000602F6F70462E512C712C612C082E04C062
:103BE000440C551C661C771C0A94D2F740E050E048
:103BF000BA0104FF0FC04FE050E060E070E004C085
:103C0000440F551F661F771F8A95D2F74095509530
:103C100060957095812F869586958370823019F115
:103C2000D8F4009102031091030320910403309112
:103C30000503813069F04429552966297729CB018C
:103C4000BA0160237123822393230E94860AA2CEA5
:103C5000402A512A622A732ACB01BA0164297529A4
:103C600086299729F2CF4429552966297729009179
:103C70000203109103032091040330910503CB014B
:103C8000BA016027712782279327DFCF1F70FF209B
:103C900029F0812F0E94CD0A802FD3CE802F0E9441
:103CA0009705812F0E94920A75CE802FE2EFBE16F3
:103CB00009F44EC0EB1578F0F0EFBF1619F121EFC3
:103CC000B21609F43DC0FF2009F465C0E11046CEEC
:103CD000812F8F713AC033EFB31609F43EC094EFD1
:103CE000B912F1CFFF2009F44BC01F71812F0E9440
:103CF000CD0AF8E01F9FC001112483608093D90290
:103D0000812F23C0FF20B9F0E11044CE1F7161E084
:103D100070E080E090E004C0660F771F881F991F55
:103D20001A95D2F700910203109103032091040326
:103D300030910503A6CFE1E0EE1508F42BCEE6CFD7
:103D4000812F8F71FF2009F4ADCF0E94CD0A22CEC2
:103D5000812F8F71FF20C9F3A5CF60E070E0CB0108
:103D6000FF2009F472CF1F7161E070E080E090E005
:103D700004C0660F771F881F991F1A95D2F765CF69
:103D800081E00E94B50A21E02E1508F003CE82E002
:103D90000E94B50AFFCDE1107ACE812F8F7182CFBC
:103DA000E2EFBE16D1F1EB1500F1F0EFBF1649F1CD
:103DB00021EFB216D1F180916802EE2009F441C0E2
:103DC000882341F08091690291E0892780936902FC
:103DD00010926802802FF110C2CD0E94FC0586E08F
:103DE000F60111928A95E9F7D5CD34EFB316C1F0FB
:103DF000B31688F085EFB812DECFF110CBCD81E09D
:103E000007C0FF2009F4C6CD8091690291E089279F
:103E100080936902BFCD81E0F826F0926902BACDA5
:103E2000F110B8CD10926902B5CDFF2039F0809124
:103E30006802882349F310926802ACCDEE2021F38A
:103E4000A9CD882309F4A6CDF110A4CD80916902F3
:103E500091E0892780936902EECF85E0DE0111961B
:103E600001900D928A95E1F7F601228189819A816C
:103E700021114EC80E942105082F52C80B3CFCE5B9
:103E80001F0709F42FC848F5033C3CE5130711F45C
:103E90000C94721710F00C9472170631ECE51E07A3
:103EA00088F40230FCE51F0708F00EC901152CE567
:103EB000120711F40C94721701301C4511F40C9484
:103EC000721702C906319CE5190709F41FCD023C9F
:103ED0001C4511F40C947217F7C8033DFCE51F074D
:103EE00011F40C94721710F40C9472170D3D3CE50C
:103EF000130711F40C94721778F4053DECE51E07D6
:103F000011F40C94721710F40C9472170C3D1C45AC
:103F100011F40C947217D8C80E3D1C4511F40C9482
:103F20007217D2C81F93CF93DF9380916F02807F67
:103F3000C1F480916C028823A1F08091A102C0910C
:103F4000700260916A0270916B0240916D02509113
:103F50006E02D62FD723DA01A095B09516E0C813CC
:103F600004C0DF91CF911F91089590E04115510554
:103F700011F0DF3F31F401968770F1CF2A0F3B1F1C
:103F800017C0189FF001199FF00D1124EF58FD4F35
:103F900021812713F0CF20812613EDCF228121111B
:103FA000EACF238134812417350740F3241B350BD6
:103FB000283C310500F720916F022F70206120937B
:103FC0006F0226E0289FF001299FF00D1124EA5886
:103FD000FD4F80818F70806180838AE692E00E942D
:103FE0005017DF91CF911F910C947805BF92CF921B
:103FF000DF92EF92FF920F931F93CF93DF93CDB792
:10400000DEB761970FB6F894DEBF0FBECDBF8C014F
:1040100085E0F801DE011D9601900D928A95E1F789
:10402000D8012C9111963C9111971296EC90129711
:1040300080916D0290916E02009709F463C14091E6
:104040006A0250916B02642F65236F3F09F45AC1D5
:104050001396CD90DC90B0906C02BB2009F413C194
:10406000C816D906C0F1F601E81BF90BCF01FF24F1
:10407000F394883C910508F0F12C80916F02982F01
:10408000907FFF2009F4C1C091117DC0FE2C531315
:1040900027C0421325C0E11023C08F708061809338
:1040A0006F028AE692E00E94501780916F02D80159
:1040B00015968C938F2D61960FB6F894DEBF0FBEC8
:1040C000CDBFDF91CF911F910F91FF90EF90DF90C7
:1040D000CF90BF900895809590958C0D9D1DC7CF72
:1040E000CD2829F0822F83238F3F09F035C180E04E
:1040F000B82FB170DB2E80FF3CC08091A1024091AF
:10410000700256E0841315C02D873E878D859E85ED
:104110000E94D009292F22952F702230F0F02430F0
:1041200018F59F70F1F0F8019581907FD1F4D12CB2
:104130001EC090E0589FF001599FF00D1124EF58D8
:10414000FD4F6181361306C06081261303C0628172
:10415000E6120FC001968770D5CF9F7011F08823AB
:1041600031F3805E883018F3C8010E945017FD2C8F
:10417000A1CFEE2009F49ECF80916F0281608093E1
:104180006F02F12C97CF531313C0421311C0E110EB
:104190000FC0D80115968C93C8010E94501786E075
:1041A000F801AAE6B2E001900D928A95E1F782CF7C
:1041B0002D873E878D859E850E94DA09882309F127
:1041C000EE20F9F080916F02803270F020916A0247
:1041D00030916B0238872F831986DB86CA868C87DD
:1041E000CE0107960E94501786E0F801AAE6B2E0D9
:1041F00001900D928A95E1F70E94921FFF24F3949B
:1042000059CFC8010E945017F9CF91110CC08AE60E
:1042100092E00E94501786E0EAE6F2E0DF011D928C
:104220008A95E9F747CF531312C0421310C0E1102B
:104230000EC0F8018583C8010E945017EAE6F2E03B
:1042400086E0DF011D928A95E9F7FB2C33CF2D879D
:104250003E878D859E850E94DA09882391F2EE20A3
:1042600081F280916F02803208F4BECF20916A0201
:1042700030916B023A8329831B82DD82CC828E834C
:10428000CE010196AFCFC816D90640F0C81AD90A98
:10429000B8ECCB16D10448F0F12CBDCF80959095A9
:1042A0008C0D9D1D883C9105B8F7FE2CEE2009F47D
:1042B000A8CF531316C0421314C080916F0280FD23
:1042C0006ECF982F907F09F46ACFF8018583903FD5
:1042D00009F462CF982F907F905F8F70892B858330
:1042E0005BCF2D873E878D859E850E94DA098111DF
:1042F0007BCF80916F02816080936F02C8010E9422
:104300005017D8CEEE2009F47CCF2D873E878D85BF
:104310009E850E94DA09F82E882309F472CF86E080
:10432000F801AAE6B2E001900D928A95E1F780913A
:104330006A0290916B020E94D00992959F7096300C
:1043400041F48091690291E08927809369029093FA
:1043500068020E94921FAECE81E08E25C9CE1F93C7
:10436000CF93DF93CDB7DEB767970FB6F894DEBF74
:104370000FBECDBF6D8B7E8B8F8B8E899F89892BD6
:10438000E1F0852F84238F3F09F098C05FEF4FEF56
:1043900014C030916902332309F44EC0E42FF0E0D9
:1043A00036E0539FE00DF11D1124EE0FFF1FEB5B74
:1043B000FE4F40815181822B8C931A8A198A4B8B34
:1043C0005C8B85E0FE017396DE011D9601900D92D7
:1043D0008A95E1F786E0FE013D96DE011796019091
:1043E0000D928A95E1F7CE0107960E94F61F811182
:1043F00012C086E0FE013796DE01119601900D9203
:104400008A95E1F78A859B85892B29F08F8198858C
:1044100089238F3FC9F516E08091A1029091700227
:10442000891320C067960FB6F894DEBF0FBECDBFCC
:10443000DF91CF911F91089580958223BDCF96E0A3
:10444000929FD001939FB00D1124AF58BD4FFE0134
:10445000319601900D929A95E1F7809370020E9437
:104460007805D9CF819FC00111248F589D4F0E949C
:10447000F61F8823B9F28091A10290E0019687701F
:1044800099278093A102C8CF2091700230E0C90122
:104490000196877099274091A1024817190679F66D
:1044A0000E943211109270021092A10286E0EAE698
:1044B000F2E0DF011D928A95E9F7ADCF81E090E04F
:1044C000042E01C0880F0A94EAF7A52FB0E0A95A7C
:1044D000BD4F2C913D8931115CCF322F38235BCFFA
:1044E0008F929F92AF92BF92CF92DF92EF92FF9204
:1044F0000F931F93CF93DF93809113019091140139
:10450000892B91F0809110028F5F809310028111AE
:104510000BC00E94601490E09093140180931301EB
:10452000892B11F40E946E0F01EF12E07801C0E0B8
:10453000912C37E0C32ECC0E8C2F0E940C148C2DA6
:104540000E940C148C2F0E94D714D7019D917D01DD
:10455000D12C891729F0FD0131978083DD24D39474
:104560008C2D0E94D714F7019681891709F466C033
:10457000868381E08D29982A0E94EE0ACF5FC7309A
:10458000C1F60E948D156AEF70E00E94DD26882E2C
:10459000D0910F02DD2309F45DC010920F02E0916B
:1045A000E702F091E8027F012EE0E20EF11C40E00C
:1045B000CBEF2AEFC22ED12C51915B3F81F0652FBA
:1045C00070E0282D392F8517D8F1261B370B2E3197
:1045D0003105E4F19F0121503109D901CC93EE1648
:1045E000FF0651F740930F02911002C0411134C0F1
:1045F00010920E02A091E702B091E80220910F0202
:10460000E9E0F3E047E153E090E06191E80139919E
:104610008E01631751F06C916B3FD1F48C93BF0105
:1046200061507109EB01388321E011964E175F0745
:1046300061F720930F0290930E0212C080E09ACF90
:10464000D601A61BB70B2A0F3B1FC1CF4D2FC7CFDB
:1046500091E0EBCF9110CCCF90910E029111C8CF89
:10466000892DDF91CF911F910F91FF90EF90DF90F7
:10467000CF90BF90AF909F908F900895CDB7DEB749
:104680002A970FB6F894DEBF0FBECDBF84B7877FE1
:1046900084BF0FB6F894A8958091600088618093DC
:1046A0006000109260000FBE80E88093610010925D
:1046B000610085B7806885BF85B7806885BF0E9427
:1046C000BE020E9489038091E20084608093E20030
:1046D000789480915B038823A1F01091E9001F700A
:1046E0009091EC00892F817090FD80E8182B10923A
:1046F000E9008091E80083FD0E9447111F7010932C
:10470000E90082E084BD93E095BD9AEF97BD809368
:104710006E000E94601490E0909314018093130146
:104720000E94EE0A0E94FD0AA1EFB2E0E9E0F3E088
:1047300011921D9223E0E731F207D1F78EE090E06D
:104740000E945F278093E7029093E802FC010E9697
:104750002BEF2193E817F907E1F70E94F60F81117B
:1047600002C00E94BE108CE090E00E94172790E0EB
:10477000B0E0A0E08093E9029093EA02A093EB02FC
:10478000B093EC0289EA8093800089E080938100F5
:1047900024982C983F988AB18F7C8AB96E98479A52
:1047A0008BB180638BB9769A8FE090E00E941F27CF
:1047B0006093ED027093EE028093EF029093F0020B
:1047C00067708FEF689FB001112475956795759597
:1047D00067957727709389006093880070938B00AA
:1047E00060938A0070938D0060938C000E946E0F1E
:1047F0000E94F60F811102C00E94BE1082E090E07C
:104800000E941727809318030E94E80F90930003DB
:104810008093FF0283E090E00E941727682F70E0EA
:1048200090E080E00E94E60580910103811138C08C
:10483000809118038160809318030E94F60F811104
:1048400004C00E94BE100E94AF1088E090E00E9459
:104850001F2760933003709331038093320390934A
:1048600033036E7F71F40E94AF1088E090E00E94E5
:104870001F2760933003709331038093320390932A
:1048800033030E945A0610922E038091300380FF5A
:1048900004C060E086950E94131681E080930103B6
:1048A00060910203709103038091040390910503CA
:1048B0000E94130A85E191E0909307038093060319
:1048C000F1E0EF2EF4E0FF2E80915B03853009F4D8
:1048D00091C00E947022A9E1B3E0E9E0F3E010E0AA
:1048E00000E0902F81914D91481709F4F2C030E01B
:1048F00020E0482750E0622F6A01022E02C0D594C2
:10490000C7940A94E2F7C0FEDEC029839A8321E0AF
:1049100030E0690102C0CC0CDD1C6A95E2F790E042
:104920008C219D21892B09F420E02B830E948D1579
:104930008160782F9D838C8349815A816B818D8121
:104940000E94AF21F801E75EFC4F8081C826C0823B
:104950000E94F00590911703891721F00E94F0053D
:104960008093170380912E03882309F4ADCF8091A3
:104970002D03E0913003E695E81BE0932903823094
:1049800009F0BEC0F0E0E15FFB4FE4910E2F10E0B4
:10499000EAE4CE2EEFE0DE2E80912A03882389F010
:1049A00010922A030E948D15980120953095820F50
:1049B000931F909328038093270310922C03109247
:1049C0002B0380912703909128030E944D048017A8
:1049D000910708F479CFE0912703F09128030E0F97
:1049E0001F1F109328030093270387E293E0F6012B
:1049F00009956ACF80915B03843009F441C010921D
:104A0000080388E190E020E40FB6F894A89580931D
:104A100060000FBE2093600010922E038091360339
:104A2000811117C081E08093360380913003982F65
:104A30009170909335038E7F809330039FEFE0E772
:104A4000F2E09150E040F040E1F700C000000E9429
:104A5000120D83B7817F846083BF83B7816083BF7A
:104A60007894889583B78E7F83BF0FB6F894A89506
:104A700080916000886180936000109260000FBE9A
:104A800080915A03882309F41FCF0E94601490E09C
:104A900090931401809313010E94EE0A0E94FD0A74
:104AA000E9E0F3E0119223E0E731F207D9F70E9441
:104AB0007022E9E0F3E0819181117BC083E0E7316E
:104AC000F807C9F701CF2F5F3F4F2630310509F0B6
:104AD00012CF0F5F1F4F0E30110509F002CF8FEF7D
:104AE0008E838F8318860E948D158160782F9A8718
:104AF00089874E815F8168858A850E94AF2128CF92
:104B0000863059F4F0E0E45FFB4FE4910E2F10E0A3
:104B10007EE5C72E7FE0D72E3FCF893061F4E69542
:104B2000F0E0E75FFB4FE4910E2F10E064ECC62E3F
:104B30006DE0D62E31CF8F3061F4E695F0E0EA5F7C
:104B4000FB4FE4910E2F10E05EEEC52E5DE0D52EFA
:104B500023CF853159F4F0E0ED5FFB4FE4910E2F48
:104B600010E04CE5C42E4EE0D42E16CF08EE13E034
:104B70009AEAC92E9EE0D92E883109F40DCF8332EE
:104B800041F4F701059114913FEEC32E3EE0D32E80
:104B900003CF04EF11E02BE8C22E2DE0D22E843299
:104BA00009F4FACE00ED17E088E4C82E84E0D82E90
:104BB000F3CE80E189BD82E189BD09B400FEFDCF5D
:104BC0008091D8008F7D8093D8008091E000826032
:104BD0008093E0008091E00081FDFCCF75CE1F92B4
:104BE0001FB61F9211248F939F93AF93BF93809111
:104BF0000803811113C08091E2029091E302A09119
:104C0000E402B091E5024196A11DB11D8093E2023C
:104C10009093E302A093E402B093E502BF91AF91B9
:104C20009F918F911F901FBE1F9018951092B900F1
:104C30008CE08093B8000895EF92FF920F931F933A
:104C4000CF93DF93182FEB011092BC0084EA80937E
:104C5000BC000E948D157C018091BC0087FF27C09D
:104C60008091B900887F883029F08091B900887FD1
:104C70008031D9F51093BB0084E88093BC000E947A
:104C80008D158C018091BC0087FF24C02091B90054
:104C9000287F90E080E02831B1F081E090E020347E
:104CA00011F490E080E09195819591090CC0CF3F7F
:104CB000DC0791F20E948D158E199F098C179D07B4
:104CC00058F28EEF9FEFDF91CF911F910F91FF90E0
:104CD000EF900895CF3FDC07A9F20E948D15801B4D
:104CE000910B8C179D0770F2ECCF8FEF9FEFEBCFFE
:104CF0000F931F93CF93DF93EB018093BB0084E866
:104D00008093BC000E948D158C018091BC0087FFB0
:104D100011C02091B900287F81E090E0283211F481
:104D200090E080E0919581959109DF91CF911F915D
:104D30000F910895CF3FDC0741F30E948D15801B32
:104D4000910B8C179D0708F38EEF9FEFEECF0F931B
:104D50001F93CF93DF93EC0184E88093BC000E9403
:104D60008D158C018091BC0087FF08C08091BB002D
:104D700090E0DF91CF911F910F910895CF3FDC0715
:104D800089F30E948D15801B910B8C179D0750F3A2
:104D90008EEF9FEFEECF84E98093BC00089587FBF0
:104DA000082E062687FD819567FD61950E940B27D9
:104DB0000EF4919507FC81950895AA1BBB1B51E148
:104DC00007C0AA1FBB1FA617B70710F0A61BB70B7B
:104DD000881F991F5A95A9F780959095BC01CD0120
:104DE000089597FB072E16F4009407D077FD09D09D
:104DF0000E94DD2607FC05D03EF4909581959F4FDB
:104E00000895709561957F4F0895EE0FFF1F0590EF
:104E1000F491E02D0994991B79E004C0991F96172D
:104E200008F0961B881F7A95C9F780950895F9991F
:104E3000FECF92BD81BDF89A992780B50895A6E16D
:104E4000B0E044E050E00C945127A8E1B0E042E02B
:104E500050E00C945127262FF999FECF92BD81BDC9
:104E6000F89A019700B4021639F01FBA20BD0FB6A8
:104E7000F894FA9AF99A0FBE08950396272F0E9484
:104E80002C270E942B27252F0E942C27242F0C949F
:104E90002C270196272F0E942C270C942B27DC010E
:104EA000CB01FC01F999FECF06C0F2BDE1BDF89A35
:104EB000319600B40D9241505040B8F708950F93C9
:104EC0001F93CF93DF938230910510F482E090E03E
:104ED000E0916703F091680330E020E0B0E0A0E0EB
:104EE000309799F42115310509F447C0281B390B77
:104EF00024303105C0F58A819B816115710571F1FE
:104F0000FB0193838283FE0111C0408151810281A4
:104F1000138148175907F8F04817590799F4109763
:104F200061F012960C93129713961C933296CF0150
:104F3000DF91CF911F910F91089500936703109314
:104F40006803F4CF2115310519F04217530718F4FF
:104F50009A01BD01EF01DF01F801C2CF9093680310
:104F600080936703D0CFFE01E20FF31F81939193EB
:104F70002250310939832883DACF2091650330919B
:104F80006603232B41F420910201309103013093F9
:104F900066032093650320910001309101012115E2
:104FA000310541F42DB73EB7409104015091050100
:104FB000241B350B4091650350916603421753073C
:104FC00008F0B5CF241B350B2817390708F4AFCFED
:104FD000BC016E5F7F4F2617370708F4A8CF640F18
:104FE000751F7093660360936503FA018193919333
:104FF0009ECFCF93DF930097E9F0FC0132971382A5
:105000001282C0916703D0916803DE0130E020E096
:105010002097A1F420813181820F931F2091650395
:10502000309166032817390709F067C0F0936603CB
:10503000E0936503DF91CF910895DA01AE17BF07C2
:1050400008F040C012964D915C9113979D01411557
:10505000510599F7D9011396FC93EE9312974D9150
:105060005D91A40FB51FEA17FB0779F48081918148
:105070000296840F951FD90111969C938E9382817D
:10508000938113969C938E931297B0E0A0E08A814F
:105090009B810097B9F5FE0181919191E80FF91F6D
:1050A00080916503909166038E179F0719F61097FC
:1050B00061F51092680310926703D0936603C09362
:1050C0006503B8CFB383A28340815181840F951FBC
:1050D000A817B90771F44E5F5F4F8D919C9111979E
:1050E000480F591F5183408312968D919C91938351
:1050F00082832115310509F0ADCFF0936803E09369
:10510000670398CFDE01EC01C2CF13961C921E926A
:105110001297D3CFFC014150504030F00190061659
:10512000D1F73197CF010895882799270895F894EA
:10513000FFCFE909E909F209F209F409F209F209D4
:10514000F209E909E909F909F209F209F9096D0A0F
:10515000790A7E0A770A7C0A830A810A2A12521285
:10516000F4135212F4138512A612F413AF13BC13E6
:10517000951C951C051D051D561DCA1CD01ECA1C5C
:08518000701D461E551E551E50
:1051880000006903200001191A1B1C1D1E1F202185
:1051980022010220004A04780B4904420B040B0147
:1051A8000001020202020606060909090909090F97
:1051B8000F0F0F0F0F151515181919191919191996
:1051C8001919192324000D010D020D030D040D05F5
:1051D8000D000C010C020C030C040C050C000B0157
:1051E8000B020B030B040B050B000A010A020A034E
:1051F8000A040A050A000901090209030904090544
:105208000900080108020803080408050800070146
:10521800070207030704070507000601060206033D
:105228000604060506000501050205030504050533
:105238000500040104020403040404050400030136
:10524800030203030304030503000201020202032D
:105258000204020502000101010201030104010523
:0E526800010000010002000300040005000028
:00000001FF
